{
  "contractName": "checkActeur",
  "abi": [
    {
      "inputs": [],
      "stateMutability": "nonpayable",
      "type": "constructor"
    },
    {
      "anonymous": false,
      "inputs": [
        {
          "indexed": true,
          "internalType": "address",
          "name": "_adresseEthereum",
          "type": "address"
        }
      ],
      "name": "InstituteAlreadyExists",
      "type": "event"
    },
    {
      "anonymous": false,
      "inputs": [
        {
          "indexed": true,
          "internalType": "string",
          "name": "_email",
          "type": "string"
        },
        {
          "indexed": false,
          "internalType": "string",
          "name": "_newPassword",
          "type": "string"
        }
      ],
      "name": "InstituteCredentialsUpdated",
      "type": "event"
    },
    {
      "anonymous": false,
      "inputs": [
        {
          "indexed": true,
          "internalType": "string",
          "name": "_ref",
          "type": "string"
        }
      ],
      "name": "RefAlreadyExists",
      "type": "event"
    },
    {
      "inputs": [],
      "name": "ConferenceCount",
      "outputs": [
        {
          "internalType": "uint256",
          "name": "",
          "type": "uint256"
        }
      ],
      "stateMutability": "view",
      "type": "function",
      "constant": true
    },
    {
      "inputs": [
        {
          "internalType": "address",
          "name": "",
          "type": "address"
        },
        {
          "internalType": "uint256",
          "name": "",
          "type": "uint256"
        }
      ],
      "name": "compte_inst",
      "outputs": [
        {
          "internalType": "string",
          "name": "email",
          "type": "string"
        },
        {
          "internalType": "bytes32",
          "name": "pass",
          "type": "bytes32"
        },
        {
          "internalType": "string",
          "name": "role",
          "type": "string"
        }
      ],
      "stateMutability": "view",
      "type": "function",
      "constant": true
    },
    {
      "inputs": [
        {
          "internalType": "uint256",
          "name": "",
          "type": "uint256"
        }
      ],
      "name": "institute",
      "outputs": [
        {
          "internalType": "address",
          "name": "adresseEthereum",
          "type": "address"
        },
        {
          "internalType": "string",
          "name": "ref",
          "type": "string"
        },
        {
          "internalType": "string",
          "name": "name",
          "type": "string"
        },
        {
          "internalType": "string",
          "name": "email",
          "type": "string"
        },
        {
          "internalType": "string",
          "name": "WebSite",
          "type": "string"
        },
        {
          "internalType": "string",
          "name": "acronym",
          "type": "string"
        },
        {
          "internalType": "bool",
          "name": "autorisation",
          "type": "bool"
        }
      ],
      "stateMutability": "view",
      "type": "function",
      "constant": true
    },
    {
      "inputs": [],
      "name": "instituteCount",
      "outputs": [
        {
          "internalType": "uint256",
          "name": "",
          "type": "uint256"
        }
      ],
      "stateMutability": "view",
      "type": "function",
      "constant": true
    },
    {
      "inputs": [
        {
          "internalType": "address",
          "name": "_adresseEthereum",
          "type": "address"
        },
        {
          "internalType": "string",
          "name": "_ref",
          "type": "string"
        },
        {
          "internalType": "string",
          "name": "_name",
          "type": "string"
        },
        {
          "internalType": "string",
          "name": "_acronym",
          "type": "string"
        },
        {
          "internalType": "string",
          "name": "_emailOff",
          "type": "string"
        },
        {
          "internalType": "string",
          "name": "_emailValid",
          "type": "string"
        },
        {
          "internalType": "string",
          "name": "_WebSite",
          "type": "string"
        },
        {
          "components": [
            {
              "internalType": "string",
              "name": "name",
              "type": "string"
            },
            {
              "internalType": "string",
              "name": "ref",
              "type": "string"
            }
          ],
          "internalType": "struct checkActeur.Diploma[]",
          "name": "_diplomas",
          "type": "tuple[]"
        }
      ],
      "name": "addInstitute",
      "outputs": [],
      "stateMutability": "nonpayable",
      "type": "function"
    },
    {
      "inputs": [
        {
          "internalType": "string",
          "name": "email",
          "type": "string"
        },
        {
          "internalType": "string",
          "name": "passwordHash",
          "type": "string"
        }
      ],
      "name": "checkAuthorization",
      "outputs": [
        {
          "internalType": "bool",
          "name": "",
          "type": "bool"
        }
      ],
      "stateMutability": "view",
      "type": "function",
      "constant": true
    },
    {
      "inputs": [
        {
          "internalType": "uint256",
          "name": "index",
          "type": "uint256"
        }
      ],
      "name": "getInstitute",
      "outputs": [
        {
          "internalType": "address",
          "name": "",
          "type": "address"
        },
        {
          "internalType": "string",
          "name": "",
          "type": "string"
        },
        {
          "internalType": "string",
          "name": "",
          "type": "string"
        },
        {
          "internalType": "string",
          "name": "",
          "type": "string"
        },
        {
          "internalType": "string",
          "name": "",
          "type": "string"
        },
        {
          "components": [
            {
              "internalType": "string",
              "name": "name",
              "type": "string"
            },
            {
              "internalType": "string",
              "name": "ref",
              "type": "string"
            }
          ],
          "internalType": "struct checkActeur.Diploma[]",
          "name": "",
          "type": "tuple[]"
        },
        {
          "internalType": "string",
          "name": "",
          "type": "string"
        },
        {
          "internalType": "bool",
          "name": "",
          "type": "bool"
        }
      ],
      "stateMutability": "view",
      "type": "function",
      "constant": true
    },
    {
      "inputs": [],
      "name": "getInstituteCount",
      "outputs": [
        {
          "internalType": "uint256",
          "name": "",
          "type": "uint256"
        }
      ],
      "stateMutability": "view",
      "type": "function",
      "constant": true
    },
    {
      "inputs": [],
      "name": "getInstitutes",
      "outputs": [
        {
          "components": [
            {
              "internalType": "address",
              "name": "adresseEthereum",
              "type": "address"
            },
            {
              "internalType": "string",
              "name": "ref",
              "type": "string"
            },
            {
              "internalType": "string",
              "name": "name",
              "type": "string"
            },
            {
              "internalType": "string",
              "name": "email",
              "type": "string"
            },
            {
              "internalType": "string",
              "name": "WebSite",
              "type": "string"
            },
            {
              "components": [
                {
                  "internalType": "string",
                  "name": "name",
                  "type": "string"
                },
                {
                  "internalType": "string",
                  "name": "ref",
                  "type": "string"
                }
              ],
              "internalType": "struct checkActeur.Diploma[]",
              "name": "diplomas",
              "type": "tuple[]"
            },
            {
              "internalType": "string",
              "name": "acronym",
              "type": "string"
            },
            {
              "internalType": "bool",
              "name": "autorisation",
              "type": "bool"
            }
          ],
          "internalType": "struct checkActeur.Institute[]",
          "name": "",
          "type": "tuple[]"
        }
      ],
      "stateMutability": "view",
      "type": "function",
      "constant": true
    },
    {
      "inputs": [],
      "name": "getMyInstitute",
      "outputs": [
        {
          "internalType": "address",
          "name": "",
          "type": "address"
        },
        {
          "internalType": "string",
          "name": "",
          "type": "string"
        },
        {
          "internalType": "string",
          "name": "",
          "type": "string"
        },
        {
          "internalType": "string",
          "name": "",
          "type": "string"
        },
        {
          "internalType": "string",
          "name": "",
          "type": "string"
        },
        {
          "components": [
            {
              "internalType": "string",
              "name": "name",
              "type": "string"
            },
            {
              "internalType": "string",
              "name": "ref",
              "type": "string"
            }
          ],
          "internalType": "struct checkActeur.Diploma[]",
          "name": "",
          "type": "tuple[]"
        },
        {
          "internalType": "string",
          "name": "",
          "type": "string"
        },
        {
          "internalType": "bool",
          "name": "",
          "type": "bool"
        }
      ],
      "stateMutability": "view",
      "type": "function",
      "constant": true
    },
    {
      "inputs": [
        {
          "internalType": "address",
          "name": "_adresseEthereum",
          "type": "address"
        }
      ],
      "name": "findInstitute",
      "outputs": [
        {
          "internalType": "int256",
          "name": "",
          "type": "int256"
        }
      ],
      "stateMutability": "view",
      "type": "function",
      "constant": true
    },
    {
      "inputs": [
        {
          "internalType": "string",
          "name": "_ref",
          "type": "string"
        }
      ],
      "name": "findInstRef",
      "outputs": [
        {
          "internalType": "int256",
          "name": "",
          "type": "int256"
        }
      ],
      "stateMutability": "view",
      "type": "function",
      "constant": true
    },
    {
      "inputs": [
        {
          "internalType": "string",
          "name": "_email",
          "type": "string"
        }
      ],
      "name": "getInstituteAddressByEmail",
      "outputs": [
        {
          "internalType": "address",
          "name": "",
          "type": "address"
        }
      ],
      "stateMutability": "view",
      "type": "function",
      "constant": true
    },
    {
      "inputs": [
        {
          "internalType": "string",
          "name": "email",
          "type": "string"
        },
        {
          "internalType": "string",
          "name": "newPassword",
          "type": "string"
        }
      ],
      "name": "resetInstitutePassword",
      "outputs": [],
      "stateMutability": "nonpayable",
      "type": "function"
    },
    {
      "inputs": [
        {
          "internalType": "string",
          "name": "email",
          "type": "string"
        },
        {
          "internalType": "string",
          "name": "password",
          "type": "string"
        }
      ],
      "name": "authorizedInstitute",
      "outputs": [
        {
          "internalType": "string",
          "name": "",
          "type": "string"
        }
      ],
      "stateMutability": "view",
      "type": "function",
      "constant": true
    },
    {
      "inputs": [
        {
          "internalType": "string",
          "name": "email",
          "type": "string"
        },
        {
          "internalType": "string",
          "name": "oldPassword",
          "type": "string"
        },
        {
          "internalType": "string",
          "name": "newPassword",
          "type": "string"
        }
      ],
      "name": "updateInstituteCredentials",
      "outputs": [],
      "stateMutability": "nonpayable",
      "type": "function"
    },
    {
      "inputs": [
        {
          "internalType": "address",
          "name": "_instituteAddress",
          "type": "address"
        },
        {
          "internalType": "string",
          "name": "_institutename",
          "type": "string"
        },
        {
          "internalType": "string",
          "name": "_name",
          "type": "string"
        },
        {
          "internalType": "string",
          "name": "_email",
          "type": "string"
        },
        {
          "internalType": "string",
          "name": "_dateOfBirth",
          "type": "string"
        },
        {
          "internalType": "string",
          "name": "_mention",
          "type": "string"
        },
        {
          "internalType": "string",
          "name": "_dateRemiseDiplome",
          "type": "string"
        },
        {
          "internalType": "string",
          "name": "_numCIN",
          "type": "string"
        },
        {
          "internalType": "string",
          "name": "_diploma",
          "type": "string"
        },
        {
          "internalType": "string",
          "name": "_ipfsHash",
          "type": "string"
        },
        {
          "internalType": "string",
          "name": "_diplomaId",
          "type": "string"
        }
      ],
      "name": "addStudentForInstitute",
      "outputs": [],
      "stateMutability": "nonpayable",
      "type": "function"
    },
    {
      "inputs": [
        {
          "internalType": "address",
          "name": "_instituteAddress",
          "type": "address"
        },
        {
          "internalType": "string",
          "name": "_instituteName",
          "type": "string"
        },
        {
          "internalType": "string[]",
          "name": "_names",
          "type": "string[]"
        },
        {
          "internalType": "string[]",
          "name": "_emails",
          "type": "string[]"
        },
        {
          "internalType": "string[]",
          "name": "_dateOfBirths",
          "type": "string[]"
        },
        {
          "internalType": "string[]",
          "name": "_mentions",
          "type": "string[]"
        },
        {
          "internalType": "string[]",
          "name": "_dateRemiseDiplomes",
          "type": "string[]"
        },
        {
          "internalType": "string[]",
          "name": "_numCINs",
          "type": "string[]"
        },
        {
          "internalType": "string[]",
          "name": "_diplomas",
          "type": "string[]"
        },
        {
          "internalType": "string[]",
          "name": "_ipfsHashes",
          "type": "string[]"
        },
        {
          "internalType": "string[]",
          "name": "_diplomaIds",
          "type": "string[]"
        }
      ],
      "name": "addStudentsForInstitute",
      "outputs": [],
      "stateMutability": "nonpayable",
      "type": "function"
    },
    {
      "inputs": [
        {
          "internalType": "address",
          "name": "_instituteAddress",
          "type": "address"
        }
      ],
      "name": "getStudentsForInstitute",
      "outputs": [
        {
          "components": [
            {
              "internalType": "string",
              "name": "institutename",
              "type": "string"
            },
            {
              "internalType": "string",
              "name": "name",
              "type": "string"
            },
            {
              "internalType": "string",
              "name": "email",
              "type": "string"
            },
            {
              "internalType": "string",
              "name": "dateOfBirth",
              "type": "string"
            },
            {
              "internalType": "string",
              "name": "mention",
              "type": "string"
            },
            {
              "internalType": "string",
              "name": "dateRemiseDiplome",
              "type": "string"
            },
            {
              "internalType": "string",
              "name": "numCIN",
              "type": "string"
            },
            {
              "internalType": "string",
              "name": "diploma",
              "type": "string"
            },
            {
              "internalType": "string",
              "name": "ipfsHash",
              "type": "string"
            },
            {
              "internalType": "string",
              "name": "id",
              "type": "string"
            },
            {
              "internalType": "string",
              "name": "validated",
              "type": "string"
            }
          ],
          "internalType": "struct checkActeur.Student[]",
          "name": "",
          "type": "tuple[]"
        }
      ],
      "stateMutability": "view",
      "type": "function",
      "constant": true
    },
    {
      "inputs": [
        {
          "internalType": "string",
          "name": "_diplomaId",
          "type": "string"
        }
      ],
      "name": "getDiplomaById",
      "outputs": [
        {
          "components": [
            {
              "internalType": "string",
              "name": "institutename",
              "type": "string"
            },
            {
              "internalType": "string",
              "name": "name",
              "type": "string"
            },
            {
              "internalType": "string",
              "name": "email",
              "type": "string"
            },
            {
              "internalType": "string",
              "name": "dateOfBirth",
              "type": "string"
            },
            {
              "internalType": "string",
              "name": "mention",
              "type": "string"
            },
            {
              "internalType": "string",
              "name": "dateRemiseDiplome",
              "type": "string"
            },
            {
              "internalType": "string",
              "name": "numCIN",
              "type": "string"
            },
            {
              "internalType": "string",
              "name": "diploma",
              "type": "string"
            },
            {
              "internalType": "string",
              "name": "ipfsHash",
              "type": "string"
            },
            {
              "internalType": "string",
              "name": "id",
              "type": "string"
            },
            {
              "internalType": "string",
              "name": "validated",
              "type": "string"
            }
          ],
          "internalType": "struct checkActeur.Student",
          "name": "",
          "type": "tuple"
        }
      ],
      "stateMutability": "view",
      "type": "function",
      "constant": true
    },
    {
      "inputs": [
        {
          "internalType": "string",
          "name": "_numCIN",
          "type": "string"
        }
      ],
      "name": "getDiplomaByCin",
      "outputs": [
        {
          "components": [
            {
              "internalType": "string",
              "name": "institutename",
              "type": "string"
            },
            {
              "internalType": "string",
              "name": "name",
              "type": "string"
            },
            {
              "internalType": "string",
              "name": "email",
              "type": "string"
            },
            {
              "internalType": "string",
              "name": "dateOfBirth",
              "type": "string"
            },
            {
              "internalType": "string",
              "name": "mention",
              "type": "string"
            },
            {
              "internalType": "string",
              "name": "dateRemiseDiplome",
              "type": "string"
            },
            {
              "internalType": "string",
              "name": "numCIN",
              "type": "string"
            },
            {
              "internalType": "string",
              "name": "diploma",
              "type": "string"
            },
            {
              "internalType": "string",
              "name": "ipfsHash",
              "type": "string"
            },
            {
              "internalType": "string",
              "name": "id",
              "type": "string"
            },
            {
              "internalType": "string",
              "name": "validated",
              "type": "string"
            }
          ],
          "internalType": "struct checkActeur.Student",
          "name": "",
          "type": "tuple"
        }
      ],
      "stateMutability": "view",
      "type": "function",
      "constant": true
    },
    {
      "inputs": [
        {
          "internalType": "string",
          "name": "_numCIN",
          "type": "string"
        },
        {
          "internalType": "string",
          "name": "_ID",
          "type": "string"
        },
        {
          "internalType": "string",
          "name": "_status",
          "type": "string"
        }
      ],
      "name": "setDiplomaStatus",
      "outputs": [],
      "stateMutability": "nonpayable",
      "type": "function"
    }
  ],
  "bytecode": "0x6080604052600080546001600160a01b03191673b02b95024cd1b2f12083a338f863027c307a3ac717815560068190556007553480156200003f57600080fd5b50600080546001600160a01b0316815260016020818152604092839020805460ff191690921790915581516060810183528281529190620055cc90830139600080546001600160a01b0316815260026020526040902090620000a29082620001e4565b50604080518082018252601181527061646d696e406578616d706c652e636f6d60781b602080830191909152600080546001600160a01b0316815260039091529190912090620000f39082620001e4565b50604080518082018252600581526430b236b4b760d91b602080830191909152600080546001600160a01b0316815260049091529190912090620001389082620001e4565b50620002b0565b634e487b7160e01b600052604160045260246000fd5b600181811c908216806200016a57607f821691505b6020821081036200018b57634e487b7160e01b600052602260045260246000fd5b50919050565b601f821115620001df57600081815260208120601f850160051c81016020861015620001ba5750805b601f850160051c820191505b81811015620001db57828155600101620001c6565b5050505b505050565b81516001600160401b038111156200020057620002006200013f565b620002188162000211845462000155565b8462000191565b602080601f831160018114620002505760008415620002375750858301515b600019600386901b1c1916600185901b178555620001db565b600085815260208120601f198616915b82811015620002815788860151825594840194600190910190840162000260565b5085821015620002a05787850151600019600388901b60f8161c191681555b5050505050600190811b01905550565b61530c80620002c06000396000f3fe608060405234801561001057600080fd5b50600436106101825760003560e01c8063807cd15f116100d8578063b2e62b371161008c578063de20677411610066578063de2067741461036a578063de990ee01461037f578063fefb21a41461039257600080fd5b8063b2e62b371461031e578063c6d2bcef14610327578063d007cf561461034a57600080fd5b8063a17c2f32116100bd578063a17c2f32146102e5578063a4d3d2b0146102f8578063a4e4616f1461030b57600080fd5b8063807cd15f146102b257806382fa3ef4146102d257600080fd5b806335f098441161013a57806360e7bb0d1161011457806360e7bb0d1461027557806363a184301461027d57806365edfaae1461029057600080fd5b806335f09844146102265780634c2f04e014610246578063576e57d11461025957600080fd5b8063151f2f811161016b578063151f2f81146101af5780631b24cb54146101df57806330ee127a1461020557600080fd5b806304461b2f146101875780630f7b5c561461019c575b600080fd5b61019a6101953660046142b2565b61039b565b005b61019a6101aa36600461446a565b6104b4565b6101c26101bd366004614596565b610b98565b6040516001600160a01b0390911681526020015b60405180910390f35b6101f26101ed3660046145d3565b610cc9565b6040516101d6979695949392919061463c565b610218610213366004614596565b610fcc565b6040519081526020016101d6565b6102396102343660046146c3565b611042565b6040516101d69190614727565b61019a6102543660046147c1565b6112d1565b6102616118c8565b6040516101d69897969594939291906149e7565b600554610218565b61026161028b3660046145d3565b611e80565b6102a361029e366004614a86565b6123fa565b6040516101d693929190614ab0565b6102c56102c0366004614596565b612542565b6040516101d69190614c04565b61019a6102e03660046142b2565b612c16565b6102186102f3366004614c17565b612de6565b61019a6103063660046146c3565b612e43565b61019a610319366004614c32565b612fab565b61021860075481565b61033a6103353660046146c3565b613405565b60405190151581526020016101d6565b61035d610358366004614c17565b6134b9565b6040516101d69190614dcb565b610372613b75565b6040516101d69190614e4b565b6102c561038d366004614596565b61405a565b61021860065481565b80600b846040516103ac9190614f86565b9081526020016040518091039020600a0190816103c99190615044565b5080600a836040516103db9190614f86565b9081526020016040518091039020600a0190816103f89190615044565b50336000908152600960205260408120905b81548110156104ad57848051906020012082828154811061042d5761042d615104565b90600052602060002090600b020160060160405161044b9190615133565b60405180910390200361049b5733600090815260096020526040902080548491908390811061047c5761047c615104565b90600052602060002090600b0201600a0190816104999190615044565b505b806104a5816151a9565b91505061040a565b5050505050565b60008060005b6005548110156105d8578a6001600160a01b0316600582815481106104e1576104e1615104565b60009182526020909120600890910201546001600160a01b03160361053d57604051600193506001600160a01b038c16907f965b3106ea605b2c0c795263318df6f81c72f087a8ce9e50e5e0d95a80b5fd9390600090a26105d8565b89805190602001206005828154811061055857610558615104565b90600052602060002090600802016001016040516105769190615133565b6040518091039020036105c65760019150896040516105959190614f86565b604051908190038120907f502dbe6b6cb6ad0909bd0c9b8c9d94df3fdcd8ff3b0f28a9003fe6e8ec56647d90600090a25b806105d0816151a9565b9150506104ba565b5081156106525760405162461bcd60e51b815260206004820152602160248201527f20696e73746974757465206164647265737320616c726561647920657869737460448201527f730000000000000000000000000000000000000000000000000000000000000060648201526084015b60405180910390fd5b80156106a05760405162461bcd60e51b815260206004820152601d60248201527f20696e737469747574652072656620616c7265616479206578697374730000006044820152606401610649565b60006005600654815481106106b7576106b7615104565b6000918252602090912060089091020180547fffffffffffffffffffffffff0000000000000000000000000000000000000000166001600160a01b038d161781559050600181016107088b82615044565b50600281016107178a82615044565b50600381016107268882615044565b50600481016107358682615044565b50600681016107448982615044565b5060078101805460ff1916600117905560005b84518110156107d3578160050185828151811061077657610776615104565b602090810291909101810151825460018101845560009384529190922082516002909202019081906107a89082615044565b50602082015160018201906107bd9082615044565b50505080806107cb906151a9565b915050610757565b506005805460018181018355600092909252825460089091027f036b6384b5eca791c62761152d0c79bb0604c104a5fb6f4eb0703f3154bb3db0810180547fffffffffffffffffffffffff0000000000000000000000000000000000000000166001600160a01b0390931692909217825583927f036b6384b5eca791c62761152d0c79bb0604c104a5fb6f4eb0703f3154bb3db190910190610877908401826151ea565b5060028181019061088a908401826151ea565b5060038181019061089d908401826151ea565b506004818101906108b0908401826151ea565b50600582810180546108c592840191906140c7565b506006818101906108d8908401826151ea565b506007918201549101805460ff191660ff909216151591909117905560068054906000610904836151a9565b919050555060006002604051602001610940907f696e737469747574650000000000000000000000000000000000000000000000815260090190565b60408051601f198184030181529082905261095a91614f86565b602060405180830381855afa158015610977573d6000803e3d6000fd5b5050506040513d601f19601f8201168201806040525081019061099a91906152bd565b905060405180606001604052808981526020018281526020016040518060400160405280600881526020017f6f66666963696572000000000000000000000000000000000000000000000000815250815250600860008e6001600160a01b03166001600160a01b03168152602001908152602001600020600060028110610a2357610a23615104565b600302016000820151816000019081610a3c9190615044565b506020820151600182015560408201516002820190610a5b9082615044565b5090505060405180606001604052808881526020018281526020016040518060400160405280600981526020017f76616c696461746f720000000000000000000000000000000000000000000000815250815250600860008e6001600160a01b03166001600160a01b03168152602001908152602001600020600160028110610ae657610ae6615104565b600302016000820151816000019081610aff9190615044565b506020820151600182015560408201516002820190610b1e9082615044565b509050506040518060400160405280600981526020017f696e737469747574650000000000000000000000000000000000000000000000815250600460008e6001600160a01b03166001600160a01b031681526020019081526020016000209081610b899190615044565b50505050505050505050505050565b6000805b600554811015610cc05782805190602001206008600060058481548110610bc557610bc5615104565b60009182526020808320600892909202909101546001600160a01b0316835282019290925260409081019091209051610bfe9190615133565b60405180910390201480610c75575082805190602001206008600060058481548110610c2c57610c2c615104565b600091825260208083206008909202909101546001600160a01b031683528201929092526040019020600160030201600001604051610c6b9190615133565b6040518091039020145b15610cae5760058181548110610c8d57610c8d615104565b60009182526020909120600890910201546001600160a01b03169392505050565b80610cb8816151a9565b915050610b9c565b50600092915050565b60058181548110610cd957600080fd5b6000918252602090912060089091020180546001820180546001600160a01b03909216935090610d0890614fa2565b80601f0160208091040260200160405190810160405280929190818152602001828054610d3490614fa2565b8015610d815780601f10610d5657610100808354040283529160200191610d81565b820191906000526020600020905b815481529060010190602001808311610d6457829003601f168201915b505050505090806002018054610d9690614fa2565b80601f0160208091040260200160405190810160405280929190818152602001828054610dc290614fa2565b8015610e0f5780601f10610de457610100808354040283529160200191610e0f565b820191906000526020600020905b815481529060010190602001808311610df257829003601f168201915b505050505090806003018054610e2490614fa2565b80601f0160208091040260200160405190810160405280929190818152602001828054610e5090614fa2565b8015610e9d5780601f10610e7257610100808354040283529160200191610e9d565b820191906000526020600020905b815481529060010190602001808311610e8057829003601f168201915b505050505090806004018054610eb290614fa2565b80601f0160208091040260200160405190810160405280929190818152602001828054610ede90614fa2565b8015610f2b5780601f10610f0057610100808354040283529160200191610f2b565b820191906000526020600020905b815481529060010190602001808311610f0e57829003601f168201915b505050505090806006018054610f4090614fa2565b80601f0160208091040260200160405190810160405280929190818152602001828054610f6c90614fa2565b8015610fb95780601f10610f8e57610100808354040283529160200191610fb9565b820191906000526020600020905b815481529060010190602001808311610f9c57829003601f168201915b5050506007909301549192505060ff1687565b6000805b6006548110156110385760058181548110610fed57610fed615104565b906000526020600020906008020160010160405161100b9190615133565b60405180910390208380519060200120036110265792915050565b80611030816151a9565b915050610fd0565b5060001992915050565b606060006002836040516020016110599190614f86565b60408051601f198184030181529082905261107391614f86565b602060405180830381855afa158015611090573d6000803e3d6000fd5b5050506040513d601f19601f820116820180604052508101906110b391906152bd565b905060006110c085610b98565b90506001600160a01b038116331480156110f457506001600160a01b03811660009081526008602052604090206001015482145b8015611137575084516020808701919091206001600160a01b038316600090815260089092526040918290209151909161112d91615133565b6040518091039020145b156111ef576001600160a01b0381166000908152600860205260408120905b60030201600201805461116890614fa2565b80601f016020809104026020016040519081016040528092919081815260200182805461119490614fa2565b80156111e15780601f106111b6576101008083540402835291602001916111e1565b820191906000526020600020905b8154815290600101906020018083116111c457829003601f168201915b5050505050925050506112cb565b6001600160a01b0381163314801561122157506001600160a01b03811660009081526008602052604090206004015482145b801561126c575084516020808701919091206001600160a01b0383166000908152600890925260409091206001600302016000016040516112629190615133565b6040518091039020145b15611290576001600160a01b03811660009081526008602052604090206001611156565b6040518060400160405280600581526020017f66616c7365000000000000000000000000000000000000000000000000000000815250925050505b92915050565b875189511480156112e3575086518951145b80156112f0575085518951145b80156112fd575084518951145b801561130a575083518951145b8015611317575082518951145b8015611324575081518951145b8015611331575080518951145b61137d5760405162461bcd60e51b815260206004820152601b60248201527f4172726179206c656e6774687320646f206e6f74206d617463682e00000000006044820152606401610649565b60005b89518110156118ba5760006040518061016001604052808d81526020018c84815181106113af576113af615104565b602002602001015181526020018b84815181106113ce576113ce615104565b602002602001015181526020018a84815181106113ed576113ed615104565b6020026020010151815260200189848151811061140c5761140c615104565b6020026020010151815260200188848151811061142b5761142b615104565b6020026020010151815260200187848151811061144a5761144a615104565b6020026020010151815260200186848151811061146957611469615104565b6020026020010151815260200185848151811061148857611488615104565b602002602001015181526020018484815181106114a7576114a7615104565b602002602001015181526020016040518060400160405280600781526020017f50656e64696e670000000000000000000000000000000000000000000000000081525081525090508c6001600160a01b0316336001600160a01b0316146115505760405162461bcd60e51b815260206004820152600860248201527f706173206175746f0000000000000000000000000000000000000000000000006044820152606401610649565b6001600160a01b038d16600090815260096020908152604082208054600181018255908352912082518392600b0290910190819061158e9082615044565b50602082015160018201906115a39082615044565b50604082015160028201906115b89082615044565b50606082015160038201906115cd9082615044565b50608082015160048201906115e29082615044565b5060a082015160058201906115f79082615044565b5060c0820151600682019061160c9082615044565b5060e082015160078201906116219082615044565b5061010082015160088201906116379082615044565b50610120820151600982019061164d9082615044565b50610140820151600a8201906116639082615044565b50505080600a84848151811061167b5761167b615104565b60200260200101516040516116909190614f86565b908152604051908190036020019020815181906116ad9082615044565b50602082015160018201906116c29082615044565b50604082015160028201906116d79082615044565b50606082015160038201906116ec9082615044565b50608082015160048201906117019082615044565b5060a082015160058201906117169082615044565b5060c0820151600682019061172b9082615044565b5060e082015160078201906117409082615044565b5061010082015160088201906117569082615044565b50610120820151600982019061176c9082615044565b50610140820151600a8201906117829082615044565b5090505080600b87848151811061179b5761179b615104565b60200260200101516040516117b09190614f86565b908152604051908190036020019020815181906117cd9082615044565b50602082015160018201906117e29082615044565b50604082015160028201906117f79082615044565b506060820151600382019061180c9082615044565b50608082015160048201906118219082615044565b5060a082015160058201906118369082615044565b5060c0820151600682019061184b9082615044565b5060e082015160078201906118609082615044565b5061010082015160088201906118769082615044565b50610120820151600982019061188c9082615044565b50610140820151600a8201906118a29082615044565b509050505080806118b2906151a9565b915050611380565b505050505050505050505050565b6000606080808080808633815b600554811015611e2d57816001600160a01b0316600582815481106118fc576118fc615104565b60009182526020909120600890910201546001600160a01b031603611e1b5760006005828154811061193057611930615104565b600091825260209182902060408051610100810190915260089092020180546001600160a01b03168252600181018054929391929184019161197190614fa2565b80601f016020809104026020016040519081016040528092919081815260200182805461199d90614fa2565b80156119ea5780601f106119bf576101008083540402835291602001916119ea565b820191906000526020600020905b8154815290600101906020018083116119cd57829003601f168201915b50505050508152602001600282018054611a0390614fa2565b80601f0160208091040260200160405190810160405280929190818152602001828054611a2f90614fa2565b8015611a7c5780601f10611a5157610100808354040283529160200191611a7c565b820191906000526020600020905b815481529060010190602001808311611a5f57829003601f168201915b50505050508152602001600382018054611a9590614fa2565b80601f0160208091040260200160405190810160405280929190818152602001828054611ac190614fa2565b8015611b0e5780601f10611ae357610100808354040283529160200191611b0e565b820191906000526020600020905b815481529060010190602001808311611af157829003601f168201915b50505050508152602001600482018054611b2790614fa2565b80601f0160208091040260200160405190810160405280929190818152602001828054611b5390614fa2565b8015611ba05780601f10611b7557610100808354040283529160200191611ba0565b820191906000526020600020905b815481529060010190602001808311611b8357829003601f168201915b5050505050815260200160058201805480602002602001604051908101604052809291908181526020016000905b82821015611d245783829060005260206000209060020201604051806040016040529081600082018054611c0190614fa2565b80601f0160208091040260200160405190810160405280929190818152602001828054611c2d90614fa2565b8015611c7a5780601f10611c4f57610100808354040283529160200191611c7a565b820191906000526020600020905b815481529060010190602001808311611c5d57829003601f168201915b50505050508152602001600182018054611c9390614fa2565b80601f0160208091040260200160405190810160405280929190818152602001828054611cbf90614fa2565b8015611d0c5780601f10611ce157610100808354040283529160200191611d0c565b820191906000526020600020905b815481529060010190602001808311611cef57829003601f168201915b50505050508152505081526020019060010190611bce565b505050508152602001600682018054611d3c90614fa2565b80601f0160208091040260200160405190810160405280929190818152602001828054611d6890614fa2565b8015611db55780601f10611d8a57610100808354040283529160200191611db5565b820191906000526020600020905b815481529060010190602001808311611d9857829003601f168201915b505050505081526020016007820160009054906101000a900460ff1615151515815250509050806000015181602001518260400151836060015184608001518560a001518660c001518760e001519a509a509a509a509a509a509a509a50505050611e76565b80611e25816151a9565b9150506118d5565b5060405162461bcd60e51b815260206004820152601860248201527f496e7374697475746520646f65736e20742065786973742100000000000000006044820152606401610649565b9091929394959697565b600060608080808080866005548910611f015760405162461bcd60e51b815260206004820152602260248201527f496e64657820656e206465686f7273206465206c6120706c6167652076616c6960448201527f64650000000000000000000000000000000000000000000000000000000000006064820152608401610649565b600060058a81548110611f1657611f16615104565b600091825260209182902060408051610100810190915260089092020180546001600160a01b031682526001810180549293919291840191611f5790614fa2565b80601f0160208091040260200160405190810160405280929190818152602001828054611f8390614fa2565b8015611fd05780601f10611fa557610100808354040283529160200191611fd0565b820191906000526020600020905b815481529060010190602001808311611fb357829003601f168201915b50505050508152602001600282018054611fe990614fa2565b80601f016020809104026020016040519081016040528092919081815260200182805461201590614fa2565b80156120625780601f1061203757610100808354040283529160200191612062565b820191906000526020600020905b81548152906001019060200180831161204557829003601f168201915b5050505050815260200160038201805461207b90614fa2565b80601f01602080910402602001604051908101604052809291908181526020018280546120a790614fa2565b80156120f45780601f106120c9576101008083540402835291602001916120f4565b820191906000526020600020905b8154815290600101906020018083116120d757829003601f168201915b5050505050815260200160048201805461210d90614fa2565b80601f016020809104026020016040519081016040528092919081815260200182805461213990614fa2565b80156121865780601f1061215b57610100808354040283529160200191612186565b820191906000526020600020905b81548152906001019060200180831161216957829003601f168201915b5050505050815260200160058201805480602002602001604051908101604052809291908181526020016000905b8282101561230a57838290600052602060002090600202016040518060400160405290816000820180546121e790614fa2565b80601f016020809104026020016040519081016040528092919081815260200182805461221390614fa2565b80156122605780601f1061223557610100808354040283529160200191612260565b820191906000526020600020905b81548152906001019060200180831161224357829003601f168201915b5050505050815260200160018201805461227990614fa2565b80601f01602080910402602001604051908101604052809291908181526020018280546122a590614fa2565b80156122f25780601f106122c7576101008083540402835291602001916122f2565b820191906000526020600020905b8154815290600101906020018083116122d557829003601f168201915b505050505081525050815260200190600101906121b4565b50505050815260200160068201805461232290614fa2565b80601f016020809104026020016040519081016040528092919081815260200182805461234e90614fa2565b801561239b5780601f106123705761010080835404028352916020019161239b565b820191906000526020600020905b81548152906001019060200180831161237e57829003601f168201915b50505091835250506007919091015460ff16151560209182015281519082015160408301516060840151608085015160a086015160c087015160e090970151959f50939d50919b50995097509550909350915050919395975091939597565b6008602052816000526040600020816002811061241657600080fd5b60030201805490925082915061242b90614fa2565b80601f016020809104026020016040519081016040528092919081815260200182805461245790614fa2565b80156124a45780601f10612479576101008083540402835291602001916124a4565b820191906000526020600020905b81548152906001019060200180831161248757829003601f168201915b5050505050908060010154908060020180546124bf90614fa2565b80601f01602080910402602001604051908101604052809291908181526020018280546124eb90614fa2565b80156125385780601f1061250d57610100808354040283529160200191612538565b820191906000526020600020905b81548152906001019060200180831161251b57829003601f168201915b5050505050905083565b61259f60405180610160016040528060608152602001606081526020016060815260200160608152602001606081526020016060815260200160608152602001606081526020016060815260200160608152602001606081525090565b600a826040516125af9190614f86565b9081526020016040518091039020604051806101600160405290816000820180546125d990614fa2565b80601f016020809104026020016040519081016040528092919081815260200182805461260590614fa2565b80156126525780601f1061262757610100808354040283529160200191612652565b820191906000526020600020905b81548152906001019060200180831161263557829003601f168201915b5050505050815260200160018201805461266b90614fa2565b80601f016020809104026020016040519081016040528092919081815260200182805461269790614fa2565b80156126e45780601f106126b9576101008083540402835291602001916126e4565b820191906000526020600020905b8154815290600101906020018083116126c757829003601f168201915b505050505081526020016002820180546126fd90614fa2565b80601f016020809104026020016040519081016040528092919081815260200182805461272990614fa2565b80156127765780601f1061274b57610100808354040283529160200191612776565b820191906000526020600020905b81548152906001019060200180831161275957829003601f168201915b5050505050815260200160038201805461278f90614fa2565b80601f01602080910402602001604051908101604052809291908181526020018280546127bb90614fa2565b80156128085780601f106127dd57610100808354040283529160200191612808565b820191906000526020600020905b8154815290600101906020018083116127eb57829003601f168201915b5050505050815260200160048201805461282190614fa2565b80601f016020809104026020016040519081016040528092919081815260200182805461284d90614fa2565b801561289a5780601f1061286f5761010080835404028352916020019161289a565b820191906000526020600020905b81548152906001019060200180831161287d57829003601f168201915b505050505081526020016005820180546128b390614fa2565b80601f01602080910402602001604051908101604052809291908181526020018280546128df90614fa2565b801561292c5780601f106129015761010080835404028352916020019161292c565b820191906000526020600020905b81548152906001019060200180831161290f57829003601f168201915b5050505050815260200160068201805461294590614fa2565b80601f016020809104026020016040519081016040528092919081815260200182805461297190614fa2565b80156129be5780601f10612993576101008083540402835291602001916129be565b820191906000526020600020905b8154815290600101906020018083116129a157829003601f168201915b505050505081526020016007820180546129d790614fa2565b80601f0160208091040260200160405190810160405280929190818152602001828054612a0390614fa2565b8015612a505780601f10612a2557610100808354040283529160200191612a50565b820191906000526020600020905b815481529060010190602001808311612a3357829003601f168201915b50505050508152602001600882018054612a6990614fa2565b80601f0160208091040260200160405190810160405280929190818152602001828054612a9590614fa2565b8015612ae25780601f10612ab757610100808354040283529160200191612ae2565b820191906000526020600020905b815481529060010190602001808311612ac557829003601f168201915b50505050508152602001600982018054612afb90614fa2565b80601f0160208091040260200160405190810160405280929190818152602001828054612b2790614fa2565b8015612b745780601f10612b4957610100808354040283529160200191612b74565b820191906000526020600020905b815481529060010190602001808311612b5757829003601f168201915b50505050508152602001600a82018054612b8d90614fa2565b80601f0160208091040260200160405190810160405280929190818152602001828054612bb990614fa2565b8015612c065780601f10612bdb57610100808354040283529160200191612c06565b820191906000526020600020905b815481529060010190602001808311612be957829003601f168201915b5050505050815250509050919050565b60408051808201909152600581527f66616c73650000000000000000000000000000000000000000000000000000006020909101527fba9154e0baa69c78e0ca563b867df81bae9d177c4ea1452c35c84386a70f0f7a612c768484611042565b8051906020012003612cca5760405162461bcd60e51b815260206004820152601360248201527f6e652070657574207061732061636365646572000000000000000000000000006044820152606401610649565b6000600282604051602001612cdf9190614f86565b60408051601f1981840301815290829052612cf991614f86565b602060405180830381855afa158015612d16573d6000803e3d6000fd5b5050506040513d601f19601f82011682018060405250810190612d3991906152bd565b84516020808701919091203360009081526008909252604091829020915192935091612d659190615133565b604051809103902003612d8c57336000908152600860205260409020600101819055612de0565b835160208086019190912033600090815260089092526040909120600160030201600001604051612dbd9190615133565b604051809103902003612de0573360009081526008602052604090206004018190555b50505050565b6000805b6006548110156110385760058181548110612e0757612e07615104565b60009182526020909120600890910201546001600160a01b0390811690841603612e315792915050565b80612e3b816151a9565b915050612dea565b6000600282604051602001612e589190614f86565b60408051601f1981840301815290829052612e7291614f86565b602060405180830381855afa158015612e8f573d6000803e3d6000fd5b5050506040513d601f19601f82011682018060405250810190612eb291906152bd565b83516020808601919091203360009081526008909252604091829020915192935091612ede9190615133565b604051809103902003612f0557336000908152600860205260409020600101819055612f59565b825160208085019190912033600090815260089092526040909120600160030201600001604051612f369190615133565b604051809103902003612f59573360009081526008602052604090206004018190555b82604051612f679190614f86565b60405180910390207f8bdb409891725ce39196ef62e4575eaa0766913147d8e78b2c818015ecd7652983604051612f9e9190614727565b60405180910390a2505050565b336001600160a01b038c161461304f5760405162461bcd60e51b815260206004820152604160248201527f566f7573206e206574657320706173206175746f72697365206120616a6f757460448201527f657220756e206574756469616e7420706f75722063657420696e73746974757460648201527f2e00000000000000000000000000000000000000000000000000000000000000608482015260a401610649565b60408051610160810182528b815260208082018c90528183018b9052606082018a90526080820189905260a0820188905260c0820187905260e082018690526101008201859052610120820184905282518084018452600781527f50656e64696e6700000000000000000000000000000000000000000000000000818301526101408301526001600160a01b038e1660009081526009825292832080546001810182559084529220815191928392600b9091029091019081906131129082615044565b50602082015160018201906131279082615044565b506040820151600282019061313c9082615044565b50606082015160038201906131519082615044565b50608082015160048201906131669082615044565b5060a0820151600582019061317b9082615044565b5060c082015160068201906131909082615044565b5060e082015160078201906131a59082615044565b5061010082015160088201906131bb9082615044565b5061012082015160098201906131d19082615044565b50610140820151600a8201906131e79082615044565b50505080600a836040516131fb9190614f86565b908152604051908190036020019020815181906132189082615044565b506020820151600182019061322d9082615044565b50604082015160028201906132429082615044565b50606082015160038201906132579082615044565b506080820151600482019061326c9082615044565b5060a082015160058201906132819082615044565b5060c082015160068201906132969082615044565b5060e082015160078201906132ab9082615044565b5061010082015160088201906132c19082615044565b5061012082015160098201906132d79082615044565b50610140820151600a8201906132ed9082615044565b5090505080600b866040516133029190614f86565b9081526040519081900360200190208151819061331f9082615044565b50602082015160018201906133349082615044565b50604082015160028201906133499082615044565b506060820151600382019061335e9082615044565b50608082015160048201906133739082615044565b5060a082015160058201906133889082615044565b5060c0820151600682019061339d9082615044565b5060e082015160078201906133b29082615044565b5061010082015160088201906133c89082615044565b5061012082015160098201906133de9082615044565b50610140820151600a8201906133f49082615044565b505050505050505050505050505050565b3360009081526001602052604081205460ff16613424575060006112cb565b336000908152600260205260408082209051909190613444908390615133565b6040518091039020848051906020012014905080613467576000925050506112cb565b336000908152600360205260408082209051909190613487908390615133565b60405180910390208780519060200120149050806134ac5760009450505050506112cb565b5060019695505050505050565b6001600160a01b0381166000908152600960209081526040808320805482518185028101850190935280835260609492939192909184015b82821015613b6a57838290600052602060002090600b02016040518061016001604052908160008201805461352590614fa2565b80601f016020809104026020016040519081016040528092919081815260200182805461355190614fa2565b801561359e5780601f106135735761010080835404028352916020019161359e565b820191906000526020600020905b81548152906001019060200180831161358157829003601f168201915b505050505081526020016001820180546135b790614fa2565b80601f01602080910402602001604051908101604052809291908181526020018280546135e390614fa2565b80156136305780601f1061360557610100808354040283529160200191613630565b820191906000526020600020905b81548152906001019060200180831161361357829003601f168201915b5050505050815260200160028201805461364990614fa2565b80601f016020809104026020016040519081016040528092919081815260200182805461367590614fa2565b80156136c25780601f10613697576101008083540402835291602001916136c2565b820191906000526020600020905b8154815290600101906020018083116136a557829003601f168201915b505050505081526020016003820180546136db90614fa2565b80601f016020809104026020016040519081016040528092919081815260200182805461370790614fa2565b80156137545780601f1061372957610100808354040283529160200191613754565b820191906000526020600020905b81548152906001019060200180831161373757829003601f168201915b5050505050815260200160048201805461376d90614fa2565b80601f016020809104026020016040519081016040528092919081815260200182805461379990614fa2565b80156137e65780601f106137bb576101008083540402835291602001916137e6565b820191906000526020600020905b8154815290600101906020018083116137c957829003601f168201915b505050505081526020016005820180546137ff90614fa2565b80601f016020809104026020016040519081016040528092919081815260200182805461382b90614fa2565b80156138785780601f1061384d57610100808354040283529160200191613878565b820191906000526020600020905b81548152906001019060200180831161385b57829003601f168201915b5050505050815260200160068201805461389190614fa2565b80601f01602080910402602001604051908101604052809291908181526020018280546138bd90614fa2565b801561390a5780601f106138df5761010080835404028352916020019161390a565b820191906000526020600020905b8154815290600101906020018083116138ed57829003601f168201915b5050505050815260200160078201805461392390614fa2565b80601f016020809104026020016040519081016040528092919081815260200182805461394f90614fa2565b801561399c5780601f106139715761010080835404028352916020019161399c565b820191906000526020600020905b81548152906001019060200180831161397f57829003601f168201915b505050505081526020016008820180546139b590614fa2565b80601f01602080910402602001604051908101604052809291908181526020018280546139e190614fa2565b8015613a2e5780601f10613a0357610100808354040283529160200191613a2e565b820191906000526020600020905b815481529060010190602001808311613a1157829003601f168201915b50505050508152602001600982018054613a4790614fa2565b80601f0160208091040260200160405190810160405280929190818152602001828054613a7390614fa2565b8015613ac05780601f10613a9557610100808354040283529160200191613ac0565b820191906000526020600020905b815481529060010190602001808311613aa357829003601f168201915b50505050508152602001600a82018054613ad990614fa2565b80601f0160208091040260200160405190810160405280929190818152602001828054613b0590614fa2565b8015613b525780601f10613b2757610100808354040283529160200191613b52565b820191906000526020600020905b815481529060010190602001808311613b3557829003601f168201915b505050505081525050815260200190600101906134f1565b505050509050919050565b60606005805480602002602001604051908101604052809291908181526020016000905b828210156140515760008481526020908190206040805161010081019091526008850290910180546001600160a01b031682526001810180549293919291840191613be390614fa2565b80601f0160208091040260200160405190810160405280929190818152602001828054613c0f90614fa2565b8015613c5c5780601f10613c3157610100808354040283529160200191613c5c565b820191906000526020600020905b815481529060010190602001808311613c3f57829003601f168201915b50505050508152602001600282018054613c7590614fa2565b80601f0160208091040260200160405190810160405280929190818152602001828054613ca190614fa2565b8015613cee5780601f10613cc357610100808354040283529160200191613cee565b820191906000526020600020905b815481529060010190602001808311613cd157829003601f168201915b50505050508152602001600382018054613d0790614fa2565b80601f0160208091040260200160405190810160405280929190818152602001828054613d3390614fa2565b8015613d805780601f10613d5557610100808354040283529160200191613d80565b820191906000526020600020905b815481529060010190602001808311613d6357829003601f168201915b50505050508152602001600482018054613d9990614fa2565b80601f0160208091040260200160405190810160405280929190818152602001828054613dc590614fa2565b8015613e125780601f10613de757610100808354040283529160200191613e12565b820191906000526020600020905b815481529060010190602001808311613df557829003601f168201915b5050505050815260200160058201805480602002602001604051908101604052809291908181526020016000905b82821015613f965783829060005260206000209060020201604051806040016040529081600082018054613e7390614fa2565b80601f0160208091040260200160405190810160405280929190818152602001828054613e9f90614fa2565b8015613eec5780601f10613ec157610100808354040283529160200191613eec565b820191906000526020600020905b815481529060010190602001808311613ecf57829003601f168201915b50505050508152602001600182018054613f0590614fa2565b80601f0160208091040260200160405190810160405280929190818152602001828054613f3190614fa2565b8015613f7e5780601f10613f5357610100808354040283529160200191613f7e565b820191906000526020600020905b815481529060010190602001808311613f6157829003601f168201915b50505050508152505081526020019060010190613e40565b505050508152602001600682018054613fae90614fa2565b80601f0160208091040260200160405190810160405280929190818152602001828054613fda90614fa2565b80156140275780601f10613ffc57610100808354040283529160200191614027565b820191906000526020600020905b81548152906001019060200180831161400a57829003601f168201915b50505091835250506007919091015460ff1615156020918201529082526001929092019101613b99565b50505050905090565b6140b760405180610160016040528060608152602001606081526020016060815260200160608152602001606081526020016060815260200160608152602001606081526020016060815260200160608152602001606081525090565b600b826040516125af9190614f86565b82805482825590600052602060002090600202810192821561412c5760005260206000209160020282015b8281111561412c5782828061410783826151ea565b5060018181019061411a908401826151ea565b505050916002019190600201906140f2565b5061413892915061413c565b5090565b808211156141385760006141508282614167565b61415e600183016000614167565b5060020161413c565b50805461417390614fa2565b6000825580601f10614183575050565b601f0160209004906000526020600020908101906141a191906141a4565b50565b5b8082111561413857600081556001016141a5565b7f4e487b7100000000000000000000000000000000000000000000000000000000600052604160045260246000fd5b6040805190810167ffffffffffffffff8111828210171561420b5761420b6141b9565b60405290565b604051601f8201601f1916810167ffffffffffffffff8111828210171561423a5761423a6141b9565b604052919050565b600082601f83011261425357600080fd5b813567ffffffffffffffff81111561426d5761426d6141b9565b6142806020601f19601f84011601614211565b81815284602083860101111561429557600080fd5b816020850160208301376000918101602001919091529392505050565b6000806000606084860312156142c757600080fd5b833567ffffffffffffffff808211156142df57600080fd5b6142eb87838801614242565b9450602086013591508082111561430157600080fd5b61430d87838801614242565b9350604086013591508082111561432357600080fd5b5061433086828701614242565b9150509250925092565b80356001600160a01b038116811461435157600080fd5b919050565b600067ffffffffffffffff821115614370576143706141b9565b5060051b60200190565b600082601f83011261438b57600080fd5b813560206143a061439b83614356565b614211565b82815260059290921b840181019181810190868411156143bf57600080fd5b8286015b8481101561445f57803567ffffffffffffffff808211156143e45760008081fd5b8189019150604080601f19848d030112156143ff5760008081fd5b6144076141e8565b87840135838111156144195760008081fd5b6144278d8a83880101614242565b82525090830135908282111561443d5760008081fd5b61444b8c8984870101614242565b8189015286525050509183019183016143c3565b509695505050505050565b600080600080600080600080610100898b03121561448757600080fd5b6144908961433a565b9750602089013567ffffffffffffffff808211156144ad57600080fd5b6144b98c838d01614242565b985060408b01359150808211156144cf57600080fd5b6144db8c838d01614242565b975060608b01359150808211156144f157600080fd5b6144fd8c838d01614242565b965060808b013591508082111561451357600080fd5b61451f8c838d01614242565b955060a08b013591508082111561453557600080fd5b6145418c838d01614242565b945060c08b013591508082111561455757600080fd5b6145638c838d01614242565b935060e08b013591508082111561457957600080fd5b506145868b828c0161437a565b9150509295985092959890939650565b6000602082840312156145a857600080fd5b813567ffffffffffffffff8111156145bf57600080fd5b6145cb84828501614242565b949350505050565b6000602082840312156145e557600080fd5b5035919050565b60005b838110156146075781810151838201526020016145ef565b50506000910152565b600081518084526146288160208601602086016145ec565b601f01601f19169290920160200192915050565b6001600160a01b038816815260e06020820152600061465e60e0830189614610565b82810360408401526146708189614610565b905082810360608401526146848188614610565b905082810360808401526146988187614610565b905082810360a08401526146ac8186614610565b91505082151560c083015298975050505050505050565b600080604083850312156146d657600080fd5b823567ffffffffffffffff808211156146ee57600080fd5b6146fa86838701614242565b9350602085013591508082111561471057600080fd5b5061471d85828601614242565b9150509250929050565b60208152600061473a6020830184614610565b9392505050565b600082601f83011261475257600080fd5b8135602061476261439b83614356565b82815260059290921b8401810191818101908684111561478157600080fd5b8286015b8481101561445f57803567ffffffffffffffff8111156147a55760008081fd5b6147b38986838b0101614242565b845250918301918301614785565b60008060008060008060008060008060006101608c8e0312156147e357600080fd5b6147ec8c61433a565b9a5067ffffffffffffffff8060208e0135111561480857600080fd5b6148188e60208f01358f01614242565b9a508060408e0135111561482b57600080fd5b61483b8e60408f01358f01614741565b99508060608e0135111561484e57600080fd5b61485e8e60608f01358f01614741565b98508060808e0135111561487157600080fd5b6148818e60808f01358f01614741565b97508060a08e0135111561489457600080fd5b6148a48e60a08f01358f01614741565b96508060c08e013511156148b757600080fd5b6148c78e60c08f01358f01614741565b95508060e08e013511156148da57600080fd5b6148ea8e60e08f01358f01614741565b9450806101008e013511156148fe57600080fd5b61490f8e6101008f01358f01614741565b9350806101208e0135111561492357600080fd5b6149348e6101208f01358f01614741565b9250806101408e0135111561494857600080fd5b5061495a8d6101408e01358e01614741565b90509295989b509295989b9093969950565b600081518084526020808501808196508360051b8101915082860160005b858110156149da5782840389528151604081518187526149ac82880182614610565b915050868201519150858103878701526149c68183614610565b9a87019a955050509084019060010161498a565b5091979650505050505050565b60006101006001600160a01b038b168352806020840152614a0a8184018b614610565b90508281036040840152614a1e818a614610565b90508281036060840152614a328189614610565b90508281036080840152614a468188614610565b905082810360a0840152614a5a818761496c565b905082810360c0840152614a6e8186614610565b91505082151560e08301529998505050505050505050565b60008060408385031215614a9957600080fd5b614aa28361433a565b946020939093013593505050565b606081526000614ac36060830186614610565b8460208401528281036040840152614adb8185614610565b9695505050505050565b60006101608251818552614afb82860182614610565b91505060208301518482036020860152614b158282614610565b91505060408301518482036040860152614b2f8282614610565b91505060608301518482036060860152614b498282614610565b91505060808301518482036080860152614b638282614610565b91505060a083015184820360a0860152614b7d8282614610565b91505060c083015184820360c0860152614b978282614610565b91505060e083015184820360e0860152614bb18282614610565b9150506101008084015185830382870152614bcc8382614610565b925050506101208084015185830382870152614be88382614610565b925050506101408084015185830382870152614adb8382614610565b60208152600061473a6020830184614ae5565b600060208284031215614c2957600080fd5b61473a8261433a565b60008060008060008060008060008060006101608c8e031215614c5457600080fd5b614c5d8c61433a565b9a5067ffffffffffffffff8060208e01351115614c7957600080fd5b614c898e60208f01358f01614242565b9a508060408e01351115614c9c57600080fd5b614cac8e60408f01358f01614242565b99508060608e01351115614cbf57600080fd5b614ccf8e60608f01358f01614242565b98508060808e01351115614ce257600080fd5b614cf28e60808f01358f01614242565b97508060a08e01351115614d0557600080fd5b614d158e60a08f01358f01614242565b96508060c08e01351115614d2857600080fd5b614d388e60c08f01358f01614242565b95508060e08e01351115614d4b57600080fd5b614d5b8e60e08f01358f01614242565b9450806101008e01351115614d6f57600080fd5b614d808e6101008f01358f01614242565b9350806101208e01351115614d9457600080fd5b614da58e6101208f01358f01614242565b9250806101408e01351115614db957600080fd5b5061495a8d6101408e01358e01614242565b6000602080830181845280855180835260408601915060408160051b870101925083870160005b82811015614e3e577fffffffffffffffffffffffffffffffffffffffffffffffffffffffffffffffc0888603018452614e2c858351614ae5565b94509285019290850190600101614df2565b5092979650505050505050565b60006020808301818452808551808352604092508286019150828160051b87010184880160005b83811015614f78578883037fffffffffffffffffffffffffffffffffffffffffffffffffffffffffffffffc0018552815180516001600160a01b0316845261010088820151818a870152614ec882870182614610565b9150508782015185820389870152614ee08282614610565b91505060608083015186830382880152614efa8382614610565b9250505060808083015186830382880152614f158382614610565b9250505060a08083015186830382880152614f30838261496c565b9250505060c08083015186830382880152614f4b8382614610565b9250505060e0808301519250614f648187018415159052565b509588019593505090860190600101614e72565b509098975050505050505050565b60008251614f988184602087016145ec565b9190910192915050565b600181811c90821680614fb657607f821691505b602082108103614fef577f4e487b7100000000000000000000000000000000000000000000000000000000600052602260045260246000fd5b50919050565b601f82111561503f57600081815260208120601f850160051c8101602086101561501c5750805b601f850160051c820191505b8181101561503b57828155600101615028565b5050505b505050565b815167ffffffffffffffff81111561505e5761505e6141b9565b6150728161506c8454614fa2565b84614ff5565b602080601f8311600181146150a7576000841561508f5750858301515b600019600386901b1c1916600185901b17855561503b565b600085815260208120601f198616915b828110156150d6578886015182559484019460019091019084016150b7565b50858210156150f45787850151600019600388901b60f8161c191681555b5050505050600190811b01905550565b7f4e487b7100000000000000000000000000000000000000000000000000000000600052603260045260246000fd5b600080835461514181614fa2565b60018281168015615159576001811461516e5761519d565b60ff198416875282151583028701945061519d565b8760005260208060002060005b858110156151945781548a82015290840190820161517b565b50505082870194505b50929695505050505050565b600060001982036151e3577f4e487b7100000000000000000000000000000000000000000000000000000000600052601160045260246000fd5b5060010190565b8181036151f5575050565b6151ff8254614fa2565b67ffffffffffffffff811115615217576152176141b9565b6152258161506c8454614fa2565b6000601f82116001811461525957600083156152415750848201545b600019600385901b1c1916600184901b1784556104ad565b600085815260209020601f19841690600086815260209020845b838110156152935782860154825560019586019590910190602001615273565b50858310156150f45793015460001960f8600387901b161c19169092555050600190811b01905550565b6000602082840312156152cf57600080fd5b505191905056fea2646970667358221220daa12b528c32b67b213357f5e71eb50787c3e71af455639da975fd76e471865664736f6c6343000811003338633639373665356235343130343135626465393038626434646565313564666231363761396338373366633462623861383166366632616234343861393138",
  "immutableReferences": {},
  "source": "// SPDX-License-Identifier: MIT\npragma experimental ABIEncoderV2;\npragma solidity >=0.5.8;\n\ncontract checkActeur {\n    address admin = 0xB02B95024cd1b2F12083A338f863027c307A3AC7;\n    mapping(address => bool) private isAuthorized;\n    mapping(address => string) private passwords;\n    mapping(address => string) private emails;\n    mapping(address => string) private roles;\n    constructor() public {\n        // Donner l'autorisation  l'adresse admin\n        isAuthorized[admin] = true;\n        passwords[admin] = \"8c6976e5b5410415bde908bd4dee15dfb167a9c873fc4bb8a81f6f2ab448a918\";\n        //compte[admin]=Compte(\"admin\",\"8c6976e5b5410415bde908bd4dee15dfb167a9c873fc4bb8a81f6f2ab448a918\");\n        emails[admin] = \"admin@example.com\";\n        roles[admin] =\"admin\";\n    }\n    struct Institute\n    {\n        address adresseEthereum;\n        string ref;\n        string name;\n        string email;\n        string WebSite;\n        Diploma[] diplomas;\n        string acronym;\n        bool autorisation;\n    }\n    struct Comptes_institute\n    {\n       string email;\n       bytes32 pass;\n       string role;\n    }\n    struct Student\n    {\n        string institutename;\n        string name;\n        string email;\n        string dateOfBirth;\n        string mention;\n        string dateRemiseDiplome;\n        string numCIN;\n        string diploma;\n        string ipfsHash;\n        string id;\n        string validated;\n    }\n    struct Diploma {\n    string name;\n    string ref;\n}\n\n    Institute[] public institute;\n    \n    \n    uint256 public instituteCount = 0;\n    uint256 public ConferenceCount = 0;\n    //mapping(address=>Compte) public compte;\n    mapping(address => Comptes_institute[2]) public compte_inst;\n    // Mapping pour associer  chaque adresse d'institut la liste de ses tudiants\n    mapping(address => Student[]) private instituteToStudents;\n    mapping(string => Student) studentsById;\n    mapping(string => Student) studentByCin;\n     event InstituteAlreadyExists(address indexed _adresseEthereum);\n    event RefAlreadyExists(string indexed _ref);\n     function addInstitute(\n    address _adresseEthereum,\n    string memory _ref,\n    string memory _name,\n    string memory _acronym,\n    string memory _emailOff,\n    string memory _emailValid,\n    string memory _WebSite,\n    Diploma[] memory _diplomas ) public {\n    //verifier est ce que l'adresse ethereum est deja existe, si oui on ne peut pas ajouter l'institue\n    bool adder_exists = false;\n    bool ref_exists = false;\n    for (uint i = 0; i < institute.length; i++) {\n        if (institute[i].adresseEthereum == _adresseEthereum) {\n            adder_exists = true;\n            emit InstituteAlreadyExists(_adresseEthereum); // mettre l'vnement pour indiquer l'adresse Ethereum existante\n            break;\n        }\n        if (keccak256(bytes(institute[i].ref)) == keccak256(bytes(_ref))) {\n            ref_exists = true;\n            emit RefAlreadyExists(_ref);\n        }\n    }\n    require(!adder_exists, \" institute address already exists\");\n    require(!ref_exists, \" institute ref already exists\");\n   //l'ajout de l'institue\n    Institute storage newInstitute = institute[instituteCount];\n    newInstitute.adresseEthereum = _adresseEthereum;\n    newInstitute.ref = _ref;\n    newInstitute.name = _name;\n    newInstitute.email = _emailOff;\n    newInstitute.WebSite = _WebSite;\n    newInstitute.acronym = _acronym;\n    newInstitute.autorisation = true;\n    // Copy diplomas from memory to storage\n    for (uint i = 0; i < _diplomas.length; i++) {\n        newInstitute.diplomas.push(_diplomas[i]);\n    }\n    institute.push(newInstitute);\n    instituteCount++;\n    //le role et le mot de passe\n    bytes32 hashedPassword = sha256(abi.encodePacked(\"institute\"));\n    //compte[_adresseEthereum] = Compte(hashedPassword, \"institute\");\n    compte_inst[_adresseEthereum][0] = Comptes_institute(_emailOff, hashedPassword, \"officier\");\n    compte_inst[_adresseEthereum][1] = Comptes_institute(_emailValid, hashedPassword, \"validator\");\n    roles[_adresseEthereum] = \"institute\";\n}\n\n\n    function checkAuthorization(string memory email,string memory passwordHash) public view returns (bool) {\n        // Vrifier si l'adresse est autorise\n        if (!isAuthorized[msg.sender]) {\n            return false;\n        }\n        string storage storedPasswordHash = passwords[msg.sender];\n        bool passwordMatches = keccak256(bytes(passwordHash)) == keccak256(bytes(storedPasswordHash));\n          if (!passwordMatches) {\n        return false;\n    }\n        string storage storedEmail = emails[msg.sender];\n        bool emailMatches = keccak256(bytes(email)) == keccak256(bytes(storedEmail));\n        if (!emailMatches) {\n        return false;\n    }\n        return true;\n    }\n\n\n\n    \n    function getInstitute(uint index) public view returns (address, string memory, string memory, string memory, string memory, Diploma[] memory, string memory, bool) {\n        require(index >= 0 && index < institute.length, \"Index en dehors de la plage valide\");\n\n        Institute memory inst = institute[index];\n        return (inst.adresseEthereum, inst.ref, inst.name, inst.email, inst.WebSite, inst.diplomas, inst.acronym, inst.autorisation);\n    }\n   function getInstituteCount() public view returns (uint256) {\n        return institute.length;\n    }\n function getInstitutes() public view returns (Institute[] memory) {\n    return institute;\n}\n     \nfunction getMyInstitute() public view returns (address, string memory, string memory, string memory, string memory, Diploma[] memory, string memory, bool) {\n    address myAddress = msg.sender;\n    for (uint i = 0; i < institute.length; i++) {\n        if (institute[i].adresseEthereum == myAddress) {\n            Institute memory inst = institute[i];\n            return (inst.adresseEthereum, inst.ref, inst.name, inst.email, inst.WebSite, inst.diplomas, inst.acronym, inst.autorisation);\n        }\n    }\n    revert(\"Institute doesn t exist!\");\n    }\n\n    function findInstitute(address _adresseEthereum) public view returns(int256)\n    {\n        for(uint i=0; i<instituteCount; i++)\n        {\n            if(_adresseEthereum == institute [i].adresseEthereum)\n                return int256(i);\n        }\n        return -1;\n    }\n\n    function findInstRef(string memory _ref) public view returns (int256)\n    {\n\n           for(uint i=0; i<instituteCount; i++)\n        {\n            if(keccak256(bytes(_ref)) == keccak256(bytes(institute [i].ref)))\n                return int256(i);\n        }\n        return -1;\n    }\n\n    function getInstituteAddressByEmail(string memory _email) public view returns (address) {\n    for (uint i = 0; i < institute.length; i++) {\n        //le email est hash\n        if ((keccak256(bytes(compte_inst[institute[i].adresseEthereum][0].email)) == keccak256(bytes(_email)))||\n        (keccak256(bytes(compte_inst[institute[i].adresseEthereum][1].email)) == keccak256(bytes(_email)))) {\n            return institute[i].adresseEthereum;\n        }\n    }\n    return address(0); // retourne l'adresse zro si l'email n'est associ  aucun institut\n}\n//update password forget\n    function resetInstitutePassword(string memory email, string memory newPassword) public {\n    //require(msg.sender == getInstituteAddressByEmail(email), \"Seul l institut peut reinitialiser son mot de passe\");\n    \n    bytes32 hashedNewPassword = sha256(abi.encodePacked(newPassword));\n    if (keccak256(bytes(compte_inst[msg.sender][0].email)) == keccak256(bytes(email))) {\n        compte_inst[msg.sender][0].pass =hashedNewPassword;\n    }\n\n    else if \n    (keccak256(bytes(compte_inst[msg.sender][1].email)) ==keccak256(bytes( email))) {\n        compte_inst[msg.sender][1].pass =hashedNewPassword;\n    } \n    emit InstituteCredentialsUpdated(email, newPassword);\n}\n\n    function authorizedInstitute(string memory email, string memory password) public view returns (string memory) {\n    //bytes32 roleInstitute = keccak256(abi.encodePacked(\"institute\"));\n    bytes32 hashedPassword = sha256(abi.encodePacked(password));\n    //email hash depuis la fonction getInstituteAddressByEmail\n    address instituteAddress = getInstituteAddressByEmail(email);\n    if(instituteAddress == msg.sender &&\n        compte_inst[instituteAddress][0].pass == hashedPassword &&\n        keccak256(bytes(compte_inst[instituteAddress][0].email)) == keccak256(bytes(email)) \n    ){\n        return compte_inst[instituteAddress][0].role;\n    }\n    else if (instituteAddress == msg.sender &&\n        compte_inst[instituteAddress][1].pass == hashedPassword &&\n        keccak256(bytes(compte_inst[instituteAddress][1].email)) == keccak256(bytes(email))\n    ) {\n        return compte_inst[instituteAddress][1].role;\n    }\n    else{\n    return \"false\";\n}\n}\n    event InstituteCredentialsUpdated(string indexed _email, string _newPassword);\n\n    function updateInstituteCredentials(string memory email, string memory oldPassword, string memory newPassword) public {\n        require(\n            keccak256(bytes(authorizedInstitute(email, oldPassword)))!= keccak256(bytes(\"false\")),\n            \"ne peut pas acceder\"\n        );\n        bytes32 hashedNewPassword = sha256(abi.encodePacked(newPassword));\n         if (keccak256(bytes(compte_inst[msg.sender][0].email)) == keccak256(bytes(email))) {\n        compte_inst[msg.sender][0].pass =hashedNewPassword;\n    }\n\n    else if \n    (keccak256(bytes(compte_inst[msg.sender][1].email)) == keccak256(bytes(email))) {\n        compte_inst[msg.sender][1].pass =hashedNewPassword;\n    }\n\n    }\n\nfunction addStudentForInstitute(address _instituteAddress, string memory _institutename,string memory _name,string memory _email, string memory _dateOfBirth, string memory _mention, string memory _dateRemiseDiplome, string memory _numCIN, string memory _diploma, string memory _ipfsHash,string memory _diplomaId) public {\n    require(msg.sender == _instituteAddress, \"Vous n etes pas autorise a ajouter un etudiant pour cet institut.\");\n    \n    // Crer un nouvel tudiant\n    Student memory newStudent = Student({\n        institutename: _institutename,\n        name: _name,\n        email:_email,\n        dateOfBirth: _dateOfBirth,\n        mention: _mention,\n        dateRemiseDiplome: _dateRemiseDiplome,\n        numCIN: _numCIN,\n        diploma:_diploma,\n        ipfsHash:_ipfsHash,\n        id:_diplomaId,\n        validated: \"Pending\"\n    });\n    // Ajouter l'tudiant  la liste correspondante  l'adresse de l'institut\n    instituteToStudents[_instituteAddress].push(newStudent);\n    studentsById[_diplomaId] = newStudent;\n    studentByCin[_numCIN] = newStudent;\n}\n\nfunction addStudentsForInstitute(\n    address _instituteAddress,\n    string memory _instituteName,\n    string[] memory _names,\n    string[] memory _emails,\n    string[] memory _dateOfBirths,\n    string[] memory _mentions,\n    string[] memory _dateRemiseDiplomes,\n    string[] memory _numCINs,\n    string[] memory _diplomas,\n    string[] memory _ipfsHashes,\n    string[] memory _diplomaIds\n) public {\n    require(\n        _names.length == _emails.length &&\n        _names.length == _dateOfBirths.length &&\n        _names.length == _mentions.length &&\n        _names.length == _dateRemiseDiplomes.length &&\n        _names.length == _numCINs.length &&\n        _names.length == _diplomas.length &&\n        _names.length == _ipfsHashes.length &&\n        _names.length == _diplomaIds.length,\n        \"Array lengths do not match.\"\n    );\n\n    for (uint i = 0; i < _names.length; i++) {\n        // Crer un nouvel tudiant pour chaque lment dans les tableaux\n        Student memory newStudent = Student({\n            institutename: _instituteName,\n            name: _names[i],\n            email: _emails[i],\n            dateOfBirth: _dateOfBirths[i],\n            mention: _mentions[i],\n            dateRemiseDiplome: _dateRemiseDiplomes[i],\n            numCIN: _numCINs[i],\n            diploma: _diplomas[i],\n            ipfsHash: _ipfsHashes[i],\n            id: _diplomaIds[i],\n            validated: \"Pending\"\n        });\n        // Require conditions to check before modifying state variables\n        require(msg.sender == _instituteAddress,\"pas auto\");\n        // Add the student to the corresponding list for the institute\n        instituteToStudents[_instituteAddress].push(newStudent);\n        studentsById[_diplomaIds[i]] = newStudent;\n        studentByCin[_numCINs[i]] = newStudent;\n    }\n}\n\n\n// Fonction pour rcuprer tous les tudiants enregistrs pour un institut donn\nfunction getStudentsForInstitute(address _instituteAddress) public view returns (Student[] memory) {\n    return instituteToStudents[_instituteAddress];\n}\n// Fonction pour rcuprer tou les diplomes de l'institue\n\n// Fonction pour rcuprer un tudiant par son diplme ID\nfunction getDiplomaById(string memory _diplomaId) public view returns (Student memory) {\n    return studentsById[_diplomaId];\n}\nfunction getDiplomaByCin(string memory _numCIN) public view returns (Student memory){\n    return studentByCin[_numCIN];\n}\n\nfunction setDiplomaStatus(string memory _numCIN, string memory _ID, string memory _status) public{\n\n     studentByCin[_numCIN].validated= _status;\n     studentsById[_ID].validated=_status;\n     Student[] storage students = instituteToStudents[msg.sender];\n     for (uint256 i = 0; i < students.length; i++) {\n            if (keccak256(bytes(students[i].numCIN)) == keccak256(bytes(_numCIN))) {\n                instituteToStudents[msg.sender][i].validated=_status;\n            }\n     }    \n}\n}\n    \n",
  "sourcePath": "C:\\Users\\dorra\\OneDrive\\Bureau\\PFE\\truffle\\contracts\\CheckActeur.sol",
  "compiler": {
    "name": "solc",
    "version": "0.8.17+commit.8df45f5f.Emscripten.clang"
  },
  "schemaVersion": "3.4.16",
  "updatedAt": "2024-03-15T22:30:44.162Z",
  "networkType": "ethereum",
  "devdoc": {
    "kind": "dev",
    "methods": {},
    "version": 1
  },
  "userdoc": {
    "kind": "user",
    "methods": {},
    "version": 1
  }
}