{
  "contractName": "Conference",
  "abi": [
    {
      "anonymous": false,
      "inputs": [
        {
          "indexed": false,
          "internalType": "string",
          "name": "participantId",
          "type": "string"
        },
        {
          "indexed": false,
          "internalType": "string",
          "name": "confEmail",
          "type": "string"
        },
        {
          "indexed": true,
          "internalType": "string",
          "name": "conferenceId",
          "type": "string"
        },
        {
          "indexed": true,
          "internalType": "string",
          "name": "diplomaHash",
          "type": "string"
        },
        {
          "indexed": false,
          "internalType": "string",
          "name": "diplomaId",
          "type": "string"
        }
      ],
      "name": "CertificateAdded",
      "type": "event"
    },
    {
      "anonymous": false,
      "inputs": [
        {
          "indexed": true,
          "internalType": "address",
          "name": "_adresseEthereum",
          "type": "address"
        },
        {
          "indexed": false,
          "internalType": "string",
          "name": "_ref",
          "type": "string"
        },
        {
          "indexed": false,
          "internalType": "string",
          "name": "_title",
          "type": "string"
        },
        {
          "indexed": false,
          "internalType": "string",
          "name": "_confEmail",
          "type": "string"
        },
        {
          "indexed": false,
          "internalType": "string",
          "name": "_status",
          "type": "string"
        }
      ],
      "name": "ConferenceAdded",
      "type": "event"
    },
    {
      "anonymous": false,
      "inputs": [
        {
          "indexed": true,
          "internalType": "address",
          "name": "_adresseEthereum",
          "type": "address"
        },
        {
          "indexed": false,
          "internalType": "string",
          "name": "_ref",
          "type": "string"
        },
        {
          "indexed": false,
          "internalType": "string",
          "name": "_newStatus",
          "type": "string"
        }
      ],
      "name": "ConferenceStatusUpdated",
      "type": "event"
    },
    {
      "anonymous": false,
      "inputs": [
        {
          "indexed": true,
          "internalType": "address",
          "name": "_adresseEthereum",
          "type": "address"
        }
      ],
      "name": "InstituteAlreadyExists",
      "type": "event"
    },
    {
      "anonymous": false,
      "inputs": [
        {
          "indexed": true,
          "internalType": "string",
          "name": "_ref",
          "type": "string"
        }
      ],
      "name": "RefAlreadyExists",
      "type": "event"
    },
    {
      "inputs": [],
      "name": "CertificateCount",
      "outputs": [
        {
          "internalType": "uint256",
          "name": "",
          "type": "uint256"
        }
      ],
      "stateMutability": "view",
      "type": "function",
      "constant": true
    },
    {
      "inputs": [
        {
          "internalType": "uint256",
          "name": "",
          "type": "uint256"
        }
      ],
      "name": "Certificates",
      "outputs": [
        {
          "internalType": "string",
          "name": "participantId",
          "type": "string"
        },
        {
          "internalType": "string",
          "name": "confEmail",
          "type": "string"
        },
        {
          "internalType": "string",
          "name": "confId",
          "type": "string"
        },
        {
          "internalType": "string",
          "name": "diplomaHash",
          "type": "string"
        },
        {
          "internalType": "string",
          "name": "diplomaId",
          "type": "string"
        },
        {
          "internalType": "uint256",
          "name": "timestamp",
          "type": "uint256"
        }
      ],
      "stateMutability": "view",
      "type": "function",
      "constant": true
    },
    {
      "inputs": [],
      "name": "ConferenceCount",
      "outputs": [
        {
          "internalType": "uint256",
          "name": "",
          "type": "uint256"
        }
      ],
      "stateMutability": "view",
      "type": "function",
      "constant": true
    },
    {
      "inputs": [
        {
          "internalType": "uint256",
          "name": "",
          "type": "uint256"
        }
      ],
      "name": "Conferences",
      "outputs": [
        {
          "internalType": "address",
          "name": "adresseEthereum",
          "type": "address"
        },
        {
          "internalType": "string",
          "name": "ref",
          "type": "string"
        },
        {
          "internalType": "string",
          "name": "title",
          "type": "string"
        },
        {
          "internalType": "string",
          "name": "confEmail",
          "type": "string"
        },
        {
          "internalType": "string",
          "name": "status",
          "type": "string"
        }
      ],
      "stateMutability": "view",
      "type": "function",
      "constant": true
    },
    {
      "inputs": [
        {
          "internalType": "string",
          "name": "",
          "type": "string"
        }
      ],
      "name": "conferenceExists",
      "outputs": [
        {
          "internalType": "bool",
          "name": "",
          "type": "bool"
        }
      ],
      "stateMutability": "view",
      "type": "function",
      "constant": true
    },
    {
      "inputs": [
        {
          "internalType": "string",
          "name": "email",
          "type": "string"
        },
        {
          "internalType": "string",
          "name": "passwordHash",
          "type": "string"
        }
      ],
      "name": "checkAuthorization",
      "outputs": [
        {
          "internalType": "bool",
          "name": "",
          "type": "bool"
        }
      ],
      "stateMutability": "view",
      "type": "function",
      "constant": true
    },
    {
      "inputs": [
        {
          "internalType": "address",
          "name": "_adresseEthereum",
          "type": "address"
        },
        {
          "internalType": "string",
          "name": "_ref",
          "type": "string"
        },
        {
          "internalType": "string",
          "name": "_title",
          "type": "string"
        },
        {
          "internalType": "string",
          "name": "_confEmail",
          "type": "string"
        },
        {
          "internalType": "string",
          "name": "_status",
          "type": "string"
        }
      ],
      "name": "addConference",
      "outputs": [],
      "stateMutability": "nonpayable",
      "type": "function"
    },
    {
      "inputs": [],
      "name": "getConferences",
      "outputs": [
        {
          "components": [
            {
              "internalType": "address",
              "name": "adresseEthereum",
              "type": "address"
            },
            {
              "internalType": "string",
              "name": "ref",
              "type": "string"
            },
            {
              "internalType": "string",
              "name": "title",
              "type": "string"
            },
            {
              "internalType": "string",
              "name": "confEmail",
              "type": "string"
            },
            {
              "internalType": "string",
              "name": "status",
              "type": "string"
            }
          ],
          "internalType": "struct Conference.Conference[]",
          "name": "",
          "type": "tuple[]"
        }
      ],
      "stateMutability": "view",
      "type": "function",
      "constant": true
    },
    {
      "inputs": [
        {
          "internalType": "string",
          "name": "_ref",
          "type": "string"
        },
        {
          "internalType": "string",
          "name": "_newStatus",
          "type": "string"
        }
      ],
      "name": "updateConferenceStatus",
      "outputs": [],
      "stateMutability": "nonpayable",
      "type": "function"
    },
    {
      "inputs": [
        {
          "internalType": "string[]",
          "name": "_participantId",
          "type": "string[]"
        },
        {
          "internalType": "string",
          "name": "_confEmail",
          "type": "string"
        },
        {
          "internalType": "string",
          "name": "_confId",
          "type": "string"
        },
        {
          "internalType": "string[]",
          "name": "_diplomaHash",
          "type": "string[]"
        },
        {
          "internalType": "string[]",
          "name": "_diplomaIds",
          "type": "string[]"
        }
      ],
      "name": "addCertificates",
      "outputs": [],
      "stateMutability": "nonpayable",
      "type": "function"
    },
    {
      "inputs": [
        {
          "internalType": "string",
          "name": "_confId",
          "type": "string"
        }
      ],
      "name": "getCertificatesForConference",
      "outputs": [
        {
          "internalType": "string[]",
          "name": "",
          "type": "string[]"
        }
      ],
      "stateMutability": "view",
      "type": "function",
      "constant": true
    },
    {
      "inputs": [
        {
          "internalType": "string",
          "name": "_confEmail",
          "type": "string"
        }
      ],
      "name": "getCertificatesForConfEmail",
      "outputs": [
        {
          "components": [
            {
              "internalType": "string",
              "name": "participantId",
              "type": "string"
            },
            {
              "internalType": "string",
              "name": "confEmail",
              "type": "string"
            },
            {
              "internalType": "string",
              "name": "confId",
              "type": "string"
            },
            {
              "internalType": "string",
              "name": "diplomaHash",
              "type": "string"
            },
            {
              "internalType": "string",
              "name": "diplomaId",
              "type": "string"
            },
            {
              "internalType": "uint256",
              "name": "timestamp",
              "type": "uint256"
            }
          ],
          "internalType": "struct Conference.Certificate[]",
          "name": "",
          "type": "tuple[]"
        }
      ],
      "stateMutability": "view",
      "type": "function",
      "constant": true
    },
    {
      "inputs": [
        {
          "internalType": "string",
          "name": "_diplomaId",
          "type": "string"
        }
      ],
      "name": "getCertificateOfDiplomaId",
      "outputs": [
        {
          "components": [
            {
              "internalType": "string",
              "name": "participantId",
              "type": "string"
            },
            {
              "internalType": "string",
              "name": "confEmail",
              "type": "string"
            },
            {
              "internalType": "string",
              "name": "confId",
              "type": "string"
            },
            {
              "internalType": "string",
              "name": "diplomaHash",
              "type": "string"
            },
            {
              "internalType": "string",
              "name": "diplomaId",
              "type": "string"
            },
            {
              "internalType": "uint256",
              "name": "timestamp",
              "type": "uint256"
            }
          ],
          "internalType": "struct Conference.Certificate",
          "name": "",
          "type": "tuple"
        }
      ],
      "stateMutability": "view",
      "type": "function",
      "constant": true
    },
    {
      "inputs": [],
      "name": "getAllCertificates",
      "outputs": [
        {
          "components": [
            {
              "internalType": "string",
              "name": "participantId",
              "type": "string"
            },
            {
              "internalType": "string",
              "name": "confEmail",
              "type": "string"
            },
            {
              "internalType": "string",
              "name": "confId",
              "type": "string"
            },
            {
              "internalType": "string",
              "name": "diplomaHash",
              "type": "string"
            },
            {
              "internalType": "string",
              "name": "diplomaId",
              "type": "string"
            },
            {
              "internalType": "uint256",
              "name": "timestamp",
              "type": "uint256"
            }
          ],
          "internalType": "struct Conference.Certificate[]",
          "name": "",
          "type": "tuple[]"
        }
      ],
      "stateMutability": "view",
      "type": "function",
      "constant": true
    }
  ],
  "bytecode": "0x6080604052600080546001600160a01b03191673b02b95024cd1b2f12083a338f863027c307a3ac7178155600781905560085534801561003e57600080fd5b506128648061004e6000396000f3fe608060405234801561001057600080fd5b50600436106100ea5760003560e01c806377c073471161008c578063b2e62b3711610066578063b2e62b3714610224578063b97ef5e71461023b578063c6d2bcef14610244578063c8a554321461025757600080fd5b806377c073471461019d5780639622c836146101db578063ac72d53a1461020057600080fd5b806339139ab1116100c857806339139ab114610137578063560269691461014a5780635e1d5b1a1461016a57806367417df31461017d57600080fd5b806309f0812c146100ef57806313fcfe801461010d5780631c82aed014610122575b600080fd5b6100f761026a565b6040516101049190611dfd565b60405180910390f35b610115610534565b6040516101049190611f6d565b61013561013036600461213e565b61086e565b005b610135610145366004612210565b610a60565b61015d6101583660046122dc565b610bec565b6040516101049190612319565b61013561017836600461236e565b610d89565b61019061018b3660046122dc565b610f43565b60405161010491906123d2565b6101cb6101ab3660046122dc565b805160208183018101805160098252928201919093012091525460ff1681565b6040519015158152602001610104565b6101ee6101e93660046123ec565b61135c565b60405161010496959493929190612405565b61021361020e3660046123ec565b611650565b60405161010495949392919061247a565b61022d60075481565b604051908152602001610104565b61022d60085481565b6101cb61025236600461236e565b6118c9565b6101156102653660046122dc565b61197f565b60606005805480602002602001604051908101604052809291908181526020016000905b8282101561052b5760008481526020908190206040805160a0810190915260058502909101805473ffffffffffffffffffffffffffffffffffffffff16825260018101805492939192918401916102e4906124e3565b80601f0160208091040260200160405190810160405280929190818152602001828054610310906124e3565b801561035d5780601f106103325761010080835404028352916020019161035d565b820191906000526020600020905b81548152906001019060200180831161034057829003601f168201915b50505050508152602001600282018054610376906124e3565b80601f01602080910402602001604051908101604052809291908181526020018280546103a2906124e3565b80156103ef5780601f106103c4576101008083540402835291602001916103ef565b820191906000526020600020905b8154815290600101906020018083116103d257829003601f168201915b50505050508152602001600382018054610408906124e3565b80601f0160208091040260200160405190810160405280929190818152602001828054610434906124e3565b80156104815780601f1061045657610100808354040283529160200191610481565b820191906000526020600020905b81548152906001019060200180831161046457829003601f168201915b5050505050815260200160048201805461049a906124e3565b80601f01602080910402602001604051908101604052809291908181526020018280546104c6906124e3565b80156105135780601f106104e857610100808354040283529160200191610513565b820191906000526020600020905b8154815290600101906020018083116104f657829003601f168201915b5050505050815250508152602001906001019061028e565b50505050905090565b60606006805480602002602001604051908101604052809291908181526020016000905b8282101561052b57838290600052602060002090600602016040518060c001604052908160008201805461058b906124e3565b80601f01602080910402602001604051908101604052809291908181526020018280546105b7906124e3565b80156106045780601f106105d957610100808354040283529160200191610604565b820191906000526020600020905b8154815290600101906020018083116105e757829003601f168201915b5050505050815260200160018201805461061d906124e3565b80601f0160208091040260200160405190810160405280929190818152602001828054610649906124e3565b80156106965780601f1061066b57610100808354040283529160200191610696565b820191906000526020600020905b81548152906001019060200180831161067957829003601f168201915b505050505081526020016002820180546106af906124e3565b80601f01602080910402602001604051908101604052809291908181526020018280546106db906124e3565b80156107285780601f106106fd57610100808354040283529160200191610728565b820191906000526020600020905b81548152906001019060200180831161070b57829003601f168201915b50505050508152602001600382018054610741906124e3565b80601f016020809104026020016040519081016040528092919081815260200182805461076d906124e3565b80156107ba5780601f1061078f576101008083540402835291602001916107ba565b820191906000526020600020905b81548152906001019060200180831161079d57829003601f168201915b505050505081526020016004820180546107d3906124e3565b80601f01602080910402602001604051908101604052809291908181526020018280546107ff906124e3565b801561084c5780601f106108215761010080835404028352916020019161084c565b820191906000526020600020905b81548152906001019060200180831161082f57829003601f168201915b5050505050815260200160058201548152505081526020019060010190610558565b60005b8251811015610a585760066040518060c0016040528088848151811061089957610899612536565b602002602001015181526020018781526020018681526020018584815181106108c4576108c4612536565b602002602001015181526020018484815181106108e3576108e3612536565b60209081029190910181015182524291810191909152825460018101845560009384529220815191926006020190819061091d90826125ab565b506020820151600182019061093290826125ab565b506040820151600282019061094790826125ab565b506060820151600382019061095c90826125ab565b506080820151600482019061097190826125ab565b5060a091909101516005909101556008805490600061098f8361266b565b91905055508281815181106109a6576109a6612536565b60200260200101516040516109bb91906126ac565b6040518091039020846040516109d191906126ac565b60405180910390207f4701a3bb1b7f525199452447fb80008c2d80fd652372d590615fd952cf41e98c888481518110610a0c57610a0c612536565b602002602001015188868681518110610a2757610a27612536565b6020026020010151604051610a3e939291906126c8565b60405180910390a380610a508161266b565b915050610871565b505050505050565b6040805160a08101825273ffffffffffffffffffffffffffffffffffffffff8088168252602082018781529282018690526060820185905260808201849052600580546001810182556000829052835191027f036b6384b5eca791c62761152d0c79bb0604c104a5fb6f4eb0703f3154bb3db081018054929093167fffffffffffffffffffffffff00000000000000000000000000000000000000009092169190911782559251919290917f036b6384b5eca791c62761152d0c79bb0604c104a5fb6f4eb0703f3154bb3db190910190610b3a90826125ab565b5060408201516002820190610b4f90826125ab565b5060608201516003820190610b6490826125ab565b5060808201516004820190610b7990826125ab565b50506007805491506000610b8c8361266b565b91905055508473ffffffffffffffffffffffffffffffffffffffff167f031bdc2975b8146277dbf8dfcee879202929581d32a1ee17a3a80aa974efcf5885858585604051610bdd949392919061270b565b60405180910390a25050505050565b6060600060085467ffffffffffffffff811115610c0b57610c0b611fcf565b604051908082528060200260200182016040528015610c3e57816020015b6060815260200190600190039081610c295790505b5090506000805b600854811015610d8057848051906020012060068281548110610c6a57610c6a612536565b9060005260206000209060060201600201604051610c8891906127f4565b604051809103902003610d6e5760068181548110610ca857610ca8612536565b90600052602060002090600602016004018054610cc4906124e3565b80601f0160208091040260200160405190810160405280929190818152602001828054610cf0906124e3565b8015610d3d5780601f10610d1257610100808354040283529160200191610d3d565b820191906000526020600020905b815481529060010190602001808311610d2057829003601f168201915b5050505050838381518110610d5457610d54612536565b60200260200101819052508180610d6a9061266b565b9250505b80610d788161266b565b915050610c45565b50815292915050565b6000805b600554811015610ed15783604051602001610da891906126ac565b6040516020818303038152906040528051906020012060058281548110610dd157610dd1612536565b9060005260206000209060050201600101604051602001610df291906127f4565b6040516020818303038152906040528051906020012003610ebf578260058281548110610e2157610e21612536565b90600052602060002090600502016004019081610e3e91906125ab565b5060058181548110610e5257610e52612536565b600091825260209091206005909102015460405173ffffffffffffffffffffffffffffffffffffffff909116907f5a02689946f568c2b799010addbb13b8bd07f6512a274de58bee181b324b510090610eae9087908790612800565b60405180910390a260019150610ed1565b80610ec98161266b565b915050610d8d565b5080610f3e576040517f08c379a000000000000000000000000000000000000000000000000000000000815260206004820152601460248201527f436f6e666572656e6365206e6f7420666f756e6400000000000000000000000060448201526064015b60405180910390fd5b505050565b610f7c6040518060c001604052806060815260200160608152602001606081526020016060815260200160608152602001600081525090565b60005b6008548110156112f957828051906020012060068281548110610fa457610fa4612536565b9060005260206000209060060201600401604051610fc291906127f4565b6040518091039020036112e75760068181548110610fe257610fe2612536565b90600052602060002090600602016040518060c001604052908160008201805461100b906124e3565b80601f0160208091040260200160405190810160405280929190818152602001828054611037906124e3565b80156110845780601f1061105957610100808354040283529160200191611084565b820191906000526020600020905b81548152906001019060200180831161106757829003601f168201915b5050505050815260200160018201805461109d906124e3565b80601f01602080910402602001604051908101604052809291908181526020018280546110c9906124e3565b80156111165780601f106110eb57610100808354040283529160200191611116565b820191906000526020600020905b8154815290600101906020018083116110f957829003601f168201915b5050505050815260200160028201805461112f906124e3565b80601f016020809104026020016040519081016040528092919081815260200182805461115b906124e3565b80156111a85780601f1061117d576101008083540402835291602001916111a8565b820191906000526020600020905b81548152906001019060200180831161118b57829003601f168201915b505050505081526020016003820180546111c1906124e3565b80601f01602080910402602001604051908101604052809291908181526020018280546111ed906124e3565b801561123a5780601f1061120f5761010080835404028352916020019161123a565b820191906000526020600020905b81548152906001019060200180831161121d57829003601f168201915b50505050508152602001600482018054611253906124e3565b80601f016020809104026020016040519081016040528092919081815260200182805461127f906124e3565b80156112cc5780601f106112a1576101008083540402835291602001916112cc565b820191906000526020600020905b8154815290600101906020018083116112af57829003601f168201915b50505050508152602001600582015481525050915050919050565b806112f18161266b565b915050610f7f565b506040517f08c379a000000000000000000000000000000000000000000000000000000000815260206004820152601560248201527f4365727469666963617465206e6f7420666f756e6400000000000000000000006044820152606401610f35565b6006818154811061136c57600080fd5b906000526020600020906006020160009150905080600001805461138f906124e3565b80601f01602080910402602001604051908101604052809291908181526020018280546113bb906124e3565b80156114085780601f106113dd57610100808354040283529160200191611408565b820191906000526020600020905b8154815290600101906020018083116113eb57829003601f168201915b50505050509080600101805461141d906124e3565b80601f0160208091040260200160405190810160405280929190818152602001828054611449906124e3565b80156114965780601f1061146b57610100808354040283529160200191611496565b820191906000526020600020905b81548152906001019060200180831161147957829003601f168201915b5050505050908060020180546114ab906124e3565b80601f01602080910402602001604051908101604052809291908181526020018280546114d7906124e3565b80156115245780601f106114f957610100808354040283529160200191611524565b820191906000526020600020905b81548152906001019060200180831161150757829003601f168201915b505050505090806003018054611539906124e3565b80601f0160208091040260200160405190810160405280929190818152602001828054611565906124e3565b80156115b25780601f10611587576101008083540402835291602001916115b2565b820191906000526020600020905b81548152906001019060200180831161159557829003601f168201915b5050505050908060040180546115c7906124e3565b80601f01602080910402602001604051908101604052809291908181526020018280546115f3906124e3565b80156116405780601f1061161557610100808354040283529160200191611640565b820191906000526020600020905b81548152906001019060200180831161162357829003601f168201915b5050505050908060050154905086565b6005818154811061166057600080fd5b60009182526020909120600590910201805460018201805473ffffffffffffffffffffffffffffffffffffffff90921693509061169c906124e3565b80601f01602080910402602001604051908101604052809291908181526020018280546116c8906124e3565b80156117155780601f106116ea57610100808354040283529160200191611715565b820191906000526020600020905b8154815290600101906020018083116116f857829003601f168201915b50505050509080600201805461172a906124e3565b80601f0160208091040260200160405190810160405280929190818152602001828054611756906124e3565b80156117a35780601f10611778576101008083540402835291602001916117a3565b820191906000526020600020905b81548152906001019060200180831161178657829003601f168201915b5050505050908060030180546117b8906124e3565b80601f01602080910402602001604051908101604052809291908181526020018280546117e4906124e3565b80156118315780601f1061180657610100808354040283529160200191611831565b820191906000526020600020905b81548152906001019060200180831161181457829003601f168201915b505050505090806004018054611846906124e3565b80601f0160208091040260200160405190810160405280929190818152602001828054611872906124e3565b80156118bf5780601f10611894576101008083540402835291602001916118bf565b820191906000526020600020905b8154815290600101906020018083116118a257829003601f168201915b5050505050905085565b3360009081526001602052604081205460ff166118e857506000611979565b3360009081526002602052604080822090519091906119089083906127f4565b604051809103902084805190602001201490508061192b57600092505050611979565b33600090815260036020526040808220905190919061194b9083906127f4565b6040518091039020878051906020012014905080611970576000945050505050611979565b60019450505050505b92915050565b6060600060085467ffffffffffffffff81111561199e5761199e611fcf565b604051908082528060200260200182016040528015611a0857816020015b6119f56040518060c001604052806060815260200160608152602001606081526020016060815260200160608152602001600081525090565b8152602001906001900390816119bc5790505b5090506000805b600854811015610d8057848051906020012060068281548110611a3457611a34612536565b9060005260206000209060060201600101604051611a5291906127f4565b604051809103902003611d9b5760068181548110611a7257611a72612536565b90600052602060002090600602016040518060c0016040529081600082018054611a9b906124e3565b80601f0160208091040260200160405190810160405280929190818152602001828054611ac7906124e3565b8015611b145780601f10611ae957610100808354040283529160200191611b14565b820191906000526020600020905b815481529060010190602001808311611af757829003601f168201915b50505050508152602001600182018054611b2d906124e3565b80601f0160208091040260200160405190810160405280929190818152602001828054611b59906124e3565b8015611ba65780601f10611b7b57610100808354040283529160200191611ba6565b820191906000526020600020905b815481529060010190602001808311611b8957829003601f168201915b50505050508152602001600282018054611bbf906124e3565b80601f0160208091040260200160405190810160405280929190818152602001828054611beb906124e3565b8015611c385780601f10611c0d57610100808354040283529160200191611c38565b820191906000526020600020905b815481529060010190602001808311611c1b57829003601f168201915b50505050508152602001600382018054611c51906124e3565b80601f0160208091040260200160405190810160405280929190818152602001828054611c7d906124e3565b8015611cca5780601f10611c9f57610100808354040283529160200191611cca565b820191906000526020600020905b815481529060010190602001808311611cad57829003601f168201915b50505050508152602001600482018054611ce3906124e3565b80601f0160208091040260200160405190810160405280929190818152602001828054611d0f906124e3565b8015611d5c5780601f10611d3157610100808354040283529160200191611d5c565b820191906000526020600020905b815481529060010190602001808311611d3f57829003601f168201915b50505050508152602001600582015481525050838381518110611d8157611d81612536565b60200260200101819052508180611d979061266b565b9250505b80611da58161266b565b915050611a0f565b60005b83811015611dc8578181015183820152602001611db0565b50506000910152565b60008151808452611de9816020860160208601611dad565b601f01601f19169290920160200192915050565b60006020808301818452808551808352604092508286019150828160051b87010184880160005b83811015611ecc57603f19898403018552815160a073ffffffffffffffffffffffffffffffffffffffff825116855288820151818a870152611e6882870182611dd1565b9150508782015185820389870152611e808282611dd1565b91505060608083015186830382880152611e9a8382611dd1565b9250505060808083015192508582038187015250611eb88183611dd1565b968901969450505090860190600101611e24565b509098975050505050505050565b6000815160c08452611eef60c0850182611dd1565b905060208301518482036020860152611f088282611dd1565b91505060408301518482036040860152611f228282611dd1565b91505060608301518482036060860152611f3c8282611dd1565b91505060808301518482036080860152611f568282611dd1565b91505060a083015160a08501528091505092915050565b6000602080830181845280855180835260408601915060408160051b870101925083870160005b82811015611fc257603f19888603018452611fb0858351611eda565b94509285019290850190600101611f94565b5092979650505050505050565b7f4e487b7100000000000000000000000000000000000000000000000000000000600052604160045260246000fd5b604051601f8201601f1916810167ffffffffffffffff8111828210171561202757612027611fcf565b604052919050565b600082601f83011261204057600080fd5b813567ffffffffffffffff81111561205a5761205a611fcf565b61206d6020601f19601f84011601611ffe565b81815284602083860101111561208257600080fd5b816020850160208301376000918101602001919091529392505050565b600082601f8301126120b057600080fd5b8135602067ffffffffffffffff808311156120cd576120cd611fcf565b8260051b6120dc838201611ffe565b93845285810183019383810190888611156120f657600080fd5b84880192505b85831015612132578235848111156121145760008081fd5b6121228a87838c010161202f565b83525091840191908401906120fc565b98975050505050505050565b600080600080600060a0868803121561215657600080fd5b853567ffffffffffffffff8082111561216e57600080fd5b61217a89838a0161209f565b9650602088013591508082111561219057600080fd5b61219c89838a0161202f565b955060408801359150808211156121b257600080fd5b6121be89838a0161202f565b945060608801359150808211156121d457600080fd5b6121e089838a0161209f565b935060808801359150808211156121f657600080fd5b506122038882890161209f565b9150509295509295909350565b600080600080600060a0868803121561222857600080fd5b853573ffffffffffffffffffffffffffffffffffffffff8116811461224c57600080fd5b9450602086013567ffffffffffffffff8082111561226957600080fd5b61227589838a0161202f565b9550604088013591508082111561228b57600080fd5b61229789838a0161202f565b945060608801359150808211156122ad57600080fd5b6122b989838a0161202f565b935060808801359150808211156122cf57600080fd5b506122038882890161202f565b6000602082840312156122ee57600080fd5b813567ffffffffffffffff81111561230557600080fd5b6123118482850161202f565b949350505050565b6000602080830181845280855180835260408601915060408160051b870101925083870160005b82811015611fc257603f1988860301845261235c858351611dd1565b94509285019290850190600101612340565b6000806040838503121561238157600080fd5b823567ffffffffffffffff8082111561239957600080fd5b6123a58683870161202f565b935060208501359150808211156123bb57600080fd5b506123c88582860161202f565b9150509250929050565b6020815260006123e56020830184611eda565b9392505050565b6000602082840312156123fe57600080fd5b5035919050565b60c08152600061241860c0830189611dd1565b828103602084015261242a8189611dd1565b9050828103604084015261243e8188611dd1565b905082810360608401526124528187611dd1565b905082810360808401526124668186611dd1565b9150508260a0830152979650505050505050565b73ffffffffffffffffffffffffffffffffffffffff8616815260a0602082015260006124a960a0830187611dd1565b82810360408401526124bb8187611dd1565b905082810360608401526124cf8186611dd1565b905082810360808401526121328185611dd1565b600181811c908216806124f757607f821691505b602082108103612530577f4e487b7100000000000000000000000000000000000000000000000000000000600052602260045260246000fd5b50919050565b7f4e487b7100000000000000000000000000000000000000000000000000000000600052603260045260246000fd5b601f821115610f3e57600081815260208120601f850160051c8101602086101561258c5750805b601f850160051c820191505b81811015610a5857828155600101612598565b815167ffffffffffffffff8111156125c5576125c5611fcf565b6125d9816125d384546124e3565b84612565565b602080601f83116001811461260e57600084156125f65750858301515b600019600386901b1c1916600185901b178555610a58565b600085815260208120601f198616915b8281101561263d5788860151825594840194600190910190840161261e565b508582101561265b5787850151600019600388901b60f8161c191681555b5050505050600190811b01905550565b600060001982036126a5577f4e487b7100000000000000000000000000000000000000000000000000000000600052601160045260246000fd5b5060010190565b600082516126be818460208701611dad565b9190910192915050565b6060815260006126db6060830186611dd1565b82810360208401526126ed8186611dd1565b905082810360408401526127018185611dd1565b9695505050505050565b60808152600061271e6080830187611dd1565b82810360208401526127308187611dd1565b905082810360408401526127448186611dd1565b905082810360608401526127588185611dd1565b979650505050505050565b60008154612770816124e3565b6001828116801561278857600181146127bb576127ea565b7fffffffffffffffffffffffffffffffffffffffffffffffffffffffffffffff00841687528215158302870194506127ea565b8560005260208060002060005b858110156127e15781548a8201529084019082016127c8565b50505082870194505b5050505092915050565b60006123e58284612763565b6040815260006128136040830185611dd1565b82810360208401526128258185611dd1565b9594505050505056fea26469706673582212202ca6d01be8fac40c3c08a1139dfcf62faff4cad779095c0f7ac3d70f9776c0b664736f6c63430008110033",
  "immutableReferences": {},
  "source": "// SPDX-License-Identifier: MIT\npragma experimental ABIEncoderV2;\npragma solidity ^0.8.17;\n\ncontract Conference {\n     address admin = 0xB02B95024cd1b2F12083A338f863027c307A3AC7;\n    mapping(address => bool) private isAuthorized;\n    mapping(address => string) private passwords;\n    mapping(address => string) private emails;\n    mapping(address => string) private roles;\n\n    struct Conference {\n        address adresseEthereum;\n        string ref;\n        string title;\n        string confEmail;\n        string status;\n    }\n\n    struct Certificate {\n        string participantId;\n        string confEmail;\n        string confId;\n        string diplomaHash;\n        string diplomaId;\n        uint timestamp;\n    }\n/// add cin to certificate\n\n    Conference[] public Conferences;\n    Certificate[] public Certificates;\n    uint256 public ConferenceCount = 0;\n    uint256 public CertificateCount = 0;\n    event InstituteAlreadyExists(address indexed _adresseEthereum);\n    event RefAlreadyExists(string indexed _ref);\n    mapping(string => bool) public conferenceExists;\n    mapping(string => string[]) private conferencesByEmail;\n    event CertificateAdded(string participantId, string confEmail, string indexed conferenceId, string indexed diplomaHash, string diplomaId);\n  function checkAuthorization(string memory email,string memory passwordHash) public view returns (bool) {\n        // Vrifier si l'adresse est autorise\n        if (!isAuthorized[msg.sender]) {\n            return false;\n        }\n        string storage storedPasswordHash = passwords[msg.sender];\n        bool passwordMatches = keccak256(bytes(passwordHash)) == keccak256(bytes(storedPasswordHash));\n          if (!passwordMatches) {\n        return false;\n    }\n        string storage storedEmail = emails[msg.sender];\n        bool emailMatches = keccak256(bytes(email)) == keccak256(bytes(storedEmail));\n        if (!emailMatches) {\n        return false;\n    }\n        return true;\n}\nevent ConferenceAdded(address indexed _adresseEthereum, string _ref, string _title, string _confEmail, string _status);\n event ConferenceStatusUpdated(address indexed _adresseEthereum, string _ref, string _newStatus);\n\nfunction addConference(address _adresseEthereum, string memory _ref, string memory _title, string memory _confEmail, string memory _status) public {\n    Conferences.push(Conference(_adresseEthereum, _ref, _title, _confEmail, _status));\n    ConferenceCount++;\n\n    // Emit an event to log the addition of the conference\n    emit ConferenceAdded(_adresseEthereum, _ref, _title, _confEmail, _status);\n}\n\n\n\n    // Fonction pour rcuprer tous les conferenciers\nfunction getConferences() public view returns (Conference[] memory) {\n    return Conferences;\n}\n// update conf status \n    function updateConferenceStatus(string memory _ref, string memory _newStatus) public {\n        bool found = false;\n        for (uint i = 0; i < Conferences.length; i++) {\n            if (keccak256(abi.encodePacked(Conferences[i].ref)) == keccak256(abi.encodePacked(_ref))) {\n                Conferences[i].status = _newStatus;\n                emit ConferenceStatusUpdated(Conferences[i].adresseEthereum, _ref, _newStatus);\n                found = true;\n                break;\n            }\n        }\n        require(found, \"Conference not found\");\n    }\n   function addCertificates(string[] memory _participantId, string memory _confEmail, string memory _confId, string[] memory _diplomaHash, string[] memory _diplomaIds) public {\n    \n        for (uint i = 0; i < _diplomaHash.length; i++) {\n            Certificates.push(Certificate(_participantId[i], _confEmail, _confId, _diplomaHash[i], _diplomaIds[i], block.timestamp));\n            CertificateCount++;\n            emit CertificateAdded(_participantId[i], _confEmail, _confId, _diplomaHash[i], _diplomaIds[i]);\n        }\n        \n    }\n\n    function getCertificatesForConference(string memory _confId) public view returns (string[] memory) {\n        // Initialize an array to store certificate IDs\n        string[] memory certificateIds = new string[](CertificateCount);\n        uint256 index = 0;\n        // Loop through all certificates\n        for (uint256 i = 0; i < CertificateCount; i++) {\n            // Check if the certificate belongs to the specified conference ID\n            if (keccak256(bytes(Certificates[i].confId)) == keccak256(bytes(_confId))) {\n                // Add certificate ID to the result array\n                certificateIds[index] = Certificates[i].diplomaId;\n                index++;\n            }\n        }\n        // Resize the array to remove any empty slots\n        assembly { mstore(certificateIds, index) }\n        return certificateIds;\n    }\n    function getCertificatesForConfEmail(string memory _confEmail) public view returns (Certificate[] memory) {\n        // Initialize an array to store certificate IDs\n        Certificate[] memory certificates = new Certificate[](CertificateCount);\n        uint256 index = 0;\n        // Loop through all certificates\n        for (uint256 i = 0; i < CertificateCount; i++) {\n            // Check if the certificate belongs to the specified conference ID\n            if (keccak256(bytes(Certificates[i].confEmail)) == keccak256(bytes(_confEmail))) {\n                // Add certificate ID to the result array\n                certificates[index] = Certificates[i];\n                index++;\n            }\n        }\n        // Resize the array to remove any empty slots\n        assembly { mstore(certificates, index) }\n        return certificates;\n    }\nfunction getCertificateOfDiplomaId(string memory _diplomaId) public view returns (Certificate memory) {\n    for (uint256 i = 0; i < CertificateCount; i++) {\n        if (keccak256(bytes(Certificates[i].diplomaId)) == keccak256(bytes(_diplomaId))) {\n            return Certificates[i];\n        }\n    }\n    revert(\"Certificate not found\");\n}\n    function getAllCertificates() public view returns (Certificate[] memory) {\n            return Certificates;\n    }\n}",
  "sourcePath": "C:\\Users\\dorra\\OneDrive\\Bureau\\PFE\\truffle\\contracts\\Conference.sol",
  "compiler": {
    "name": "solc",
    "version": "0.8.17+commit.8df45f5f.Emscripten.clang"
  },
  "schemaVersion": "3.4.16",
  "updatedAt": "2024-08-28T11:17:48.702Z",
  "networkType": "ethereum",
  "devdoc": {
    "kind": "dev",
    "methods": {},
    "version": 1
  },
  "userdoc": {
    "kind": "user",
    "methods": {
      "Conferences(uint256)": {
        "notice": "add cin to certificate"
      }
    },
    "version": 1
  }
}