{
  "contractName": "Institute",
  "abi": [
    {
      "inputs": [],
      "stateMutability": "nonpayable",
      "type": "constructor"
    },
    {
      "anonymous": false,
      "inputs": [
        {
          "indexed": true,
          "internalType": "address",
          "name": "_adresseEthereum",
          "type": "address"
        }
      ],
      "name": "InstituteAlreadyExists",
      "type": "event"
    },
    {
      "anonymous": false,
      "inputs": [
        {
          "indexed": true,
          "internalType": "string",
          "name": "_email",
          "type": "string"
        },
        {
          "indexed": false,
          "internalType": "string",
          "name": "_newPassword",
          "type": "string"
        }
      ],
      "name": "InstituteCredentialsUpdated",
      "type": "event"
    },
    {
      "anonymous": false,
      "inputs": [
        {
          "indexed": true,
          "internalType": "string",
          "name": "_ref",
          "type": "string"
        }
      ],
      "name": "RefAlreadyExists",
      "type": "event"
    },
    {
      "inputs": [],
      "name": "ConferenceCount",
      "outputs": [
        {
          "internalType": "uint256",
          "name": "",
          "type": "uint256"
        }
      ],
      "stateMutability": "view",
      "type": "function",
      "constant": true
    },
    {
      "inputs": [
        {
          "internalType": "string",
          "name": "",
          "type": "string"
        }
      ],
      "name": "DiplomaByCin",
      "outputs": [
        {
          "internalType": "string",
          "name": "instituteId",
          "type": "string"
        },
        {
          "internalType": "string",
          "name": "diplomaReference",
          "type": "string"
        },
        {
          "internalType": "string",
          "name": "studentId",
          "type": "string"
        },
        {
          "internalType": "string",
          "name": "mention",
          "type": "string"
        },
        {
          "internalType": "string",
          "name": "numCIN",
          "type": "string"
        },
        {
          "internalType": "string",
          "name": "ipfsHash",
          "type": "string"
        },
        {
          "internalType": "string",
          "name": "diplomaid",
          "type": "string"
        },
        {
          "internalType": "string",
          "name": "status",
          "type": "string"
        }
      ],
      "stateMutability": "view",
      "type": "function",
      "constant": true
    },
    {
      "inputs": [
        {
          "internalType": "string",
          "name": "",
          "type": "string"
        }
      ],
      "name": "DiplomasById",
      "outputs": [
        {
          "internalType": "string",
          "name": "instituteId",
          "type": "string"
        },
        {
          "internalType": "string",
          "name": "diplomaReference",
          "type": "string"
        },
        {
          "internalType": "string",
          "name": "studentId",
          "type": "string"
        },
        {
          "internalType": "string",
          "name": "mention",
          "type": "string"
        },
        {
          "internalType": "string",
          "name": "numCIN",
          "type": "string"
        },
        {
          "internalType": "string",
          "name": "ipfsHash",
          "type": "string"
        },
        {
          "internalType": "string",
          "name": "diplomaid",
          "type": "string"
        },
        {
          "internalType": "string",
          "name": "status",
          "type": "string"
        }
      ],
      "stateMutability": "view",
      "type": "function",
      "constant": true
    },
    {
      "inputs": [
        {
          "internalType": "address",
          "name": "",
          "type": "address"
        },
        {
          "internalType": "uint256",
          "name": "",
          "type": "uint256"
        }
      ],
      "name": "birthsByAddress",
      "outputs": [
        {
          "internalType": "string",
          "name": "",
          "type": "string"
        }
      ],
      "stateMutability": "view",
      "type": "function",
      "constant": true
    },
    {
      "inputs": [
        {
          "internalType": "address",
          "name": "",
          "type": "address"
        },
        {
          "internalType": "uint256",
          "name": "",
          "type": "uint256"
        }
      ],
      "name": "cinsByAddress",
      "outputs": [
        {
          "internalType": "string",
          "name": "",
          "type": "string"
        }
      ],
      "stateMutability": "view",
      "type": "function",
      "constant": true
    },
    {
      "inputs": [
        {
          "internalType": "address",
          "name": "",
          "type": "address"
        },
        {
          "internalType": "uint256",
          "name": "",
          "type": "uint256"
        }
      ],
      "name": "compteInst",
      "outputs": [
        {
          "internalType": "string",
          "name": "email",
          "type": "string"
        },
        {
          "internalType": "string",
          "name": "pass",
          "type": "string"
        },
        {
          "internalType": "string",
          "name": "role",
          "type": "string"
        }
      ],
      "stateMutability": "view",
      "type": "function",
      "constant": true
    },
    {
      "inputs": [
        {
          "internalType": "address",
          "name": "",
          "type": "address"
        },
        {
          "internalType": "uint256",
          "name": "",
          "type": "uint256"
        }
      ],
      "name": "diplomarefsByAddress",
      "outputs": [
        {
          "internalType": "string",
          "name": "",
          "type": "string"
        }
      ],
      "stateMutability": "view",
      "type": "function",
      "constant": true
    },
    {
      "inputs": [
        {
          "internalType": "address",
          "name": "",
          "type": "address"
        },
        {
          "internalType": "uint256",
          "name": "",
          "type": "uint256"
        }
      ],
      "name": "diplomasNamesByAddress",
      "outputs": [
        {
          "internalType": "string",
          "name": "",
          "type": "string"
        }
      ],
      "stateMutability": "view",
      "type": "function",
      "constant": true
    },
    {
      "inputs": [
        {
          "internalType": "address",
          "name": "",
          "type": "address"
        },
        {
          "internalType": "uint256",
          "name": "",
          "type": "uint256"
        }
      ],
      "name": "diplomasRefsByAddress",
      "outputs": [
        {
          "internalType": "string",
          "name": "",
          "type": "string"
        }
      ],
      "stateMutability": "view",
      "type": "function",
      "constant": true
    },
    {
      "inputs": [
        {
          "internalType": "address",
          "name": "",
          "type": "address"
        },
        {
          "internalType": "uint256",
          "name": "",
          "type": "uint256"
        }
      ],
      "name": "diplomatedByAddress",
      "outputs": [
        {
          "internalType": "string",
          "name": "",
          "type": "string"
        }
      ],
      "stateMutability": "view",
      "type": "function",
      "constant": true
    },
    {
      "inputs": [
        {
          "internalType": "address",
          "name": "",
          "type": "address"
        },
        {
          "internalType": "uint256",
          "name": "",
          "type": "uint256"
        }
      ],
      "name": "emailsByAddress",
      "outputs": [
        {
          "internalType": "string",
          "name": "",
          "type": "string"
        }
      ],
      "stateMutability": "view",
      "type": "function",
      "constant": true
    },
    {
      "inputs": [
        {
          "internalType": "address",
          "name": "",
          "type": "address"
        },
        {
          "internalType": "uint256",
          "name": "",
          "type": "uint256"
        }
      ],
      "name": "hashsByAddress",
      "outputs": [
        {
          "internalType": "string",
          "name": "",
          "type": "string"
        }
      ],
      "stateMutability": "view",
      "type": "function",
      "constant": true
    },
    {
      "inputs": [
        {
          "internalType": "address",
          "name": "",
          "type": "address"
        },
        {
          "internalType": "uint256",
          "name": "",
          "type": "uint256"
        }
      ],
      "name": "idsByAddress",
      "outputs": [
        {
          "internalType": "string",
          "name": "",
          "type": "string"
        }
      ],
      "stateMutability": "view",
      "type": "function",
      "constant": true
    },
    {
      "inputs": [],
      "name": "instituteCount",
      "outputs": [
        {
          "internalType": "uint256",
          "name": "",
          "type": "uint256"
        }
      ],
      "stateMutability": "view",
      "type": "function",
      "constant": true
    },
    {
      "inputs": [
        {
          "internalType": "uint256",
          "name": "",
          "type": "uint256"
        }
      ],
      "name": "institutes",
      "outputs": [
        {
          "internalType": "address",
          "name": "adresseEthereum",
          "type": "address"
        },
        {
          "internalType": "string",
          "name": "ref",
          "type": "string"
        },
        {
          "internalType": "string",
          "name": "name",
          "type": "string"
        },
        {
          "internalType": "string",
          "name": "emailOff",
          "type": "string"
        },
        {
          "internalType": "string",
          "name": "emailValid",
          "type": "string"
        },
        {
          "internalType": "bool",
          "name": "autorisation",
          "type": "bool"
        }
      ],
      "stateMutability": "view",
      "type": "function",
      "constant": true
    },
    {
      "inputs": [
        {
          "internalType": "address",
          "name": "",
          "type": "address"
        },
        {
          "internalType": "uint256",
          "name": "",
          "type": "uint256"
        }
      ],
      "name": "mentionsByAddress",
      "outputs": [
        {
          "internalType": "string",
          "name": "",
          "type": "string"
        }
      ],
      "stateMutability": "view",
      "type": "function",
      "constant": true
    },
    {
      "inputs": [
        {
          "internalType": "address",
          "name": "",
          "type": "address"
        },
        {
          "internalType": "uint256",
          "name": "",
          "type": "uint256"
        }
      ],
      "name": "namesByAddress",
      "outputs": [
        {
          "internalType": "string",
          "name": "",
          "type": "string"
        }
      ],
      "stateMutability": "view",
      "type": "function",
      "constant": true
    },
    {
      "inputs": [
        {
          "internalType": "address",
          "name": "_adresseEthereum",
          "type": "address"
        },
        {
          "internalType": "string",
          "name": "_ref",
          "type": "string"
        },
        {
          "internalType": "string",
          "name": "_name",
          "type": "string"
        },
        {
          "internalType": "string",
          "name": "_emailOff",
          "type": "string"
        },
        {
          "internalType": "string",
          "name": "_emailValid",
          "type": "string"
        }
      ],
      "name": "addInstitute",
      "outputs": [],
      "stateMutability": "nonpayable",
      "type": "function"
    },
    {
      "inputs": [
        {
          "internalType": "string",
          "name": "_email",
          "type": "string"
        }
      ],
      "name": "getInstituteByEmail",
      "outputs": [
        {
          "internalType": "address",
          "name": "",
          "type": "address"
        },
        {
          "internalType": "string",
          "name": "",
          "type": "string"
        },
        {
          "internalType": "string",
          "name": "",
          "type": "string"
        },
        {
          "internalType": "string",
          "name": "",
          "type": "string"
        },
        {
          "internalType": "string",
          "name": "",
          "type": "string"
        },
        {
          "internalType": "bool",
          "name": "",
          "type": "bool"
        }
      ],
      "stateMutability": "view",
      "type": "function",
      "constant": true
    },
    {
      "inputs": [
        {
          "internalType": "string",
          "name": "email",
          "type": "string"
        },
        {
          "internalType": "string",
          "name": "passwordHash",
          "type": "string"
        }
      ],
      "name": "checkAuthorization",
      "outputs": [
        {
          "internalType": "bool",
          "name": "",
          "type": "bool"
        }
      ],
      "stateMutability": "view",
      "type": "function",
      "constant": true
    },
    {
      "inputs": [],
      "name": "getInstituteCount",
      "outputs": [
        {
          "internalType": "uint256",
          "name": "",
          "type": "uint256"
        }
      ],
      "stateMutability": "view",
      "type": "function",
      "constant": true
    },
    {
      "inputs": [],
      "name": "getInstitutes",
      "outputs": [
        {
          "components": [
            {
              "internalType": "address",
              "name": "adresseEthereum",
              "type": "address"
            },
            {
              "internalType": "string",
              "name": "ref",
              "type": "string"
            },
            {
              "internalType": "string",
              "name": "name",
              "type": "string"
            },
            {
              "internalType": "string",
              "name": "emailOff",
              "type": "string"
            },
            {
              "internalType": "string",
              "name": "emailValid",
              "type": "string"
            },
            {
              "internalType": "bool",
              "name": "autorisation",
              "type": "bool"
            }
          ],
          "internalType": "struct Institute.InstituteData[]",
          "name": "",
          "type": "tuple[]"
        }
      ],
      "stateMutability": "view",
      "type": "function",
      "constant": true
    },
    {
      "inputs": [],
      "name": "getMyInstitute",
      "outputs": [
        {
          "internalType": "address",
          "name": "",
          "type": "address"
        },
        {
          "internalType": "string",
          "name": "",
          "type": "string"
        },
        {
          "internalType": "string",
          "name": "",
          "type": "string"
        },
        {
          "internalType": "string",
          "name": "",
          "type": "string"
        },
        {
          "internalType": "string",
          "name": "",
          "type": "string"
        },
        {
          "internalType": "bool",
          "name": "",
          "type": "bool"
        }
      ],
      "stateMutability": "view",
      "type": "function",
      "constant": true
    },
    {
      "inputs": [
        {
          "internalType": "address",
          "name": "_adresseEthereum",
          "type": "address"
        }
      ],
      "name": "findInstitute",
      "outputs": [
        {
          "internalType": "int256",
          "name": "",
          "type": "int256"
        }
      ],
      "stateMutability": "view",
      "type": "function",
      "constant": true
    },
    {
      "inputs": [
        {
          "internalType": "string",
          "name": "_ref",
          "type": "string"
        }
      ],
      "name": "findInstRef",
      "outputs": [
        {
          "internalType": "int256",
          "name": "",
          "type": "int256"
        }
      ],
      "stateMutability": "view",
      "type": "function",
      "constant": true
    },
    {
      "inputs": [
        {
          "internalType": "string",
          "name": "_email",
          "type": "string"
        }
      ],
      "name": "getInstituteAddressByEmail",
      "outputs": [
        {
          "internalType": "address",
          "name": "",
          "type": "address"
        }
      ],
      "stateMutability": "view",
      "type": "function",
      "constant": true
    },
    {
      "inputs": [
        {
          "internalType": "string",
          "name": "email",
          "type": "string"
        },
        {
          "internalType": "string",
          "name": "newPassword",
          "type": "string"
        }
      ],
      "name": "resetInstitutePassword",
      "outputs": [],
      "stateMutability": "nonpayable",
      "type": "function"
    },
    {
      "inputs": [
        {
          "internalType": "string",
          "name": "email",
          "type": "string"
        },
        {
          "internalType": "string",
          "name": "password",
          "type": "string"
        }
      ],
      "name": "authorizedInstitute",
      "outputs": [
        {
          "internalType": "string",
          "name": "",
          "type": "string"
        }
      ],
      "stateMutability": "view",
      "type": "function",
      "constant": true
    },
    {
      "inputs": [
        {
          "internalType": "string",
          "name": "email",
          "type": "string"
        },
        {
          "internalType": "string",
          "name": "oldPassword",
          "type": "string"
        },
        {
          "internalType": "string",
          "name": "newPassword",
          "type": "string"
        }
      ],
      "name": "updateInstituteCredentials",
      "outputs": [],
      "stateMutability": "nonpayable",
      "type": "function"
    },
    {
      "inputs": [
        {
          "internalType": "address",
          "name": "_instituteAddress",
          "type": "address"
        },
        {
          "internalType": "string",
          "name": "_diplomaReference",
          "type": "string"
        },
        {
          "internalType": "string",
          "name": "_instituteId",
          "type": "string"
        },
        {
          "internalType": "string",
          "name": "_studentId",
          "type": "string"
        },
        {
          "internalType": "string",
          "name": "_mention",
          "type": "string"
        },
        {
          "internalType": "string",
          "name": "_numCIN",
          "type": "string"
        },
        {
          "internalType": "string",
          "name": "_ipfsHash",
          "type": "string"
        },
        {
          "internalType": "string",
          "name": "_diplomaId",
          "type": "string"
        }
      ],
      "name": "addDiploma",
      "outputs": [],
      "stateMutability": "nonpayable",
      "type": "function"
    },
    {
      "inputs": [
        {
          "internalType": "address",
          "name": "_instituteAddress",
          "type": "address"
        },
        {
          "internalType": "string",
          "name": "_instituteId",
          "type": "string"
        },
        {
          "internalType": "string",
          "name": "_diplomaReference",
          "type": "string"
        },
        {
          "internalType": "string[]",
          "name": "_studentIds",
          "type": "string[]"
        },
        {
          "internalType": "string[]",
          "name": "_mentions",
          "type": "string[]"
        },
        {
          "internalType": "string[]",
          "name": "_numCINs",
          "type": "string[]"
        },
        {
          "internalType": "string[]",
          "name": "_ipfsHashes",
          "type": "string[]"
        },
        {
          "internalType": "string[]",
          "name": "_diplomaIds",
          "type": "string[]"
        }
      ],
      "name": "addDiplomas",
      "outputs": [],
      "stateMutability": "nonpayable",
      "type": "function"
    },
    {
      "inputs": [
        {
          "internalType": "address",
          "name": "_instituteAddress",
          "type": "address"
        }
      ],
      "name": "getDiplomasForInstitute",
      "outputs": [
        {
          "components": [
            {
              "internalType": "string",
              "name": "instituteId",
              "type": "string"
            },
            {
              "internalType": "string",
              "name": "diplomaReference",
              "type": "string"
            },
            {
              "internalType": "string",
              "name": "studentId",
              "type": "string"
            },
            {
              "internalType": "string",
              "name": "mention",
              "type": "string"
            },
            {
              "internalType": "string",
              "name": "numCIN",
              "type": "string"
            },
            {
              "internalType": "string",
              "name": "ipfsHash",
              "type": "string"
            },
            {
              "internalType": "string",
              "name": "diplomaid",
              "type": "string"
            },
            {
              "internalType": "string",
              "name": "status",
              "type": "string"
            }
          ],
          "internalType": "struct Institute.Diploma[]",
          "name": "",
          "type": "tuple[]"
        }
      ],
      "stateMutability": "view",
      "type": "function",
      "constant": true
    },
    {
      "inputs": [
        {
          "internalType": "string",
          "name": "_diplomaId",
          "type": "string"
        }
      ],
      "name": "getDiplomaById",
      "outputs": [
        {
          "components": [
            {
              "internalType": "string",
              "name": "instituteId",
              "type": "string"
            },
            {
              "internalType": "string",
              "name": "diplomaReference",
              "type": "string"
            },
            {
              "internalType": "string",
              "name": "studentId",
              "type": "string"
            },
            {
              "internalType": "string",
              "name": "mention",
              "type": "string"
            },
            {
              "internalType": "string",
              "name": "numCIN",
              "type": "string"
            },
            {
              "internalType": "string",
              "name": "ipfsHash",
              "type": "string"
            },
            {
              "internalType": "string",
              "name": "diplomaid",
              "type": "string"
            },
            {
              "internalType": "string",
              "name": "status",
              "type": "string"
            }
          ],
          "internalType": "struct Institute.Diploma",
          "name": "",
          "type": "tuple"
        }
      ],
      "stateMutability": "view",
      "type": "function",
      "constant": true
    },
    {
      "inputs": [
        {
          "internalType": "string",
          "name": "_numCIN",
          "type": "string"
        }
      ],
      "name": "getDiplomaByCin",
      "outputs": [
        {
          "components": [
            {
              "internalType": "string",
              "name": "instituteId",
              "type": "string"
            },
            {
              "internalType": "string",
              "name": "diplomaReference",
              "type": "string"
            },
            {
              "internalType": "string",
              "name": "studentId",
              "type": "string"
            },
            {
              "internalType": "string",
              "name": "mention",
              "type": "string"
            },
            {
              "internalType": "string",
              "name": "numCIN",
              "type": "string"
            },
            {
              "internalType": "string",
              "name": "ipfsHash",
              "type": "string"
            },
            {
              "internalType": "string",
              "name": "diplomaid",
              "type": "string"
            },
            {
              "internalType": "string",
              "name": "status",
              "type": "string"
            }
          ],
          "internalType": "struct Institute.Diploma",
          "name": "",
          "type": "tuple"
        }
      ],
      "stateMutability": "view",
      "type": "function",
      "constant": true
    },
    {
      "inputs": [
        {
          "internalType": "string",
          "name": "_numCIN",
          "type": "string"
        },
        {
          "internalType": "string",
          "name": "_ID",
          "type": "string"
        },
        {
          "internalType": "string",
          "name": "_status",
          "type": "string"
        }
      ],
      "name": "setDiplomaStatus",
      "outputs": [],
      "stateMutability": "nonpayable",
      "type": "function"
    },
    {
      "inputs": [],
      "name": "getAllDiplomas",
      "outputs": [
        {
          "components": [
            {
              "internalType": "string",
              "name": "instituteId",
              "type": "string"
            },
            {
              "internalType": "string",
              "name": "diplomaReference",
              "type": "string"
            },
            {
              "internalType": "string",
              "name": "studentId",
              "type": "string"
            },
            {
              "internalType": "string",
              "name": "mention",
              "type": "string"
            },
            {
              "internalType": "string",
              "name": "numCIN",
              "type": "string"
            },
            {
              "internalType": "string",
              "name": "ipfsHash",
              "type": "string"
            },
            {
              "internalType": "string",
              "name": "diplomaid",
              "type": "string"
            },
            {
              "internalType": "string",
              "name": "status",
              "type": "string"
            }
          ],
          "internalType": "struct Institute.Diploma[]",
          "name": "",
          "type": "tuple[]"
        }
      ],
      "stateMutability": "view",
      "type": "function",
      "constant": true
    }
  ],
  "bytecode": "0x6080604052600080546001600160a01b03191673b02b95024cd1b2f12083a338f863027c307a3ac717815560068190556007553480156200003f57600080fd5b50600080546001600160a01b0316815260016020818152604092839020805460ff1916909217909155815160608101835282815291906200521190830139600080546001600160a01b0316815260026020526040902090620000a29082620001e4565b50604080518082018252601181527061646d696e406578616d706c652e636f6d60781b602080830191909152600080546001600160a01b0316815260039091529190912090620000f39082620001e4565b50604080518082018252600581526430b236b4b760d91b602080830191909152600080546001600160a01b0316815260049091529190912090620001389082620001e4565b50620002b0565b634e487b7160e01b600052604160045260246000fd5b600181811c908216806200016a57607f821691505b6020821081036200018b57634e487b7160e01b600052602260045260246000fd5b50919050565b601f821115620001df57600081815260208120601f850160051c81016020861015620001ba5750805b601f850160051c820191505b81811015620001db57828155600101620001c6565b5050505b505050565b81516001600160401b038111156200020057620002006200013f565b620002188162000211845462000155565b8462000191565b602080601f831160018114620002505760008415620002375750858301515b600019600386901b1c1916600185901b178555620001db565b600085815260208120601f198616915b82811015620002815788860151825594840194600190910190840162000260565b5085821015620002a05787850151600019600388901b60f8161c191681555b5050505050600190811b01905550565b614f5180620002c06000396000f3fe608060405234801561001057600080fd5b506004361061025c5760003560e01c8063807cd15f11610145578063b3b5c9ae116100bd578063de2067741161008c578063de990ee011610071578063de990ee014610544578063fe2195d714610557578063fefb21a41461056a57600080fd5b8063de2067741461051c578063de3c348e1461053157600080fd5b8063b3b5c9ae146104c0578063bac990b0146104d3578063c6d2bcef146104e6578063d08f5e3d1461050957600080fd5b80639b4b6bc511610114578063a4d3d2b0116100f9578063a4d3d2b014610491578063b2e62b37146104a4578063b3894bcd146104ad57600080fd5b80639b4b6bc51461046b578063a17c2f321461047e57600080fd5b8063807cd15f1461041257806382fa3ef41461043257806390ee20b01461044557806391ef690a1461045857600080fd5b80634b865abf116101d85780635f63a71a116101a757806360e7bb0d1161018c57806360e7bb0d146103e45780637cc0d255146103ec5780638058ae13146103ff57600080fd5b80635f63a71a146103c95780636003896c146103dc57600080fd5b80634b865abf14610362578063576e57d114610375578063578fde521461038f5780635d0b6331146103b657600080fd5b806330ee127a1161022f57806335f098441161021457806335f098441461031c57806346d65a621461032f5780634a27affd1461034f57600080fd5b806330ee127a146102e85780633473096d1461030957600080fd5b806304461b2f14610261578063151f2f81146102765780632d5b3da7146102a65780632e5ee0e9146102c6575b600080fd5b61027461026f366004614305565b610573565b005b61028961028436600461438d565b61068c565b6040516001600160a01b0390911681526020015b60405180910390f35b6102b96102b43660046143e6565b6107bd565b60405161029d9190614460565b6102d96102d43660046143e6565b610876565b60405161029d9392919061447a565b6102fb6102f636600461438d565b610a46565b60405190815260200161029d565b6102b96103173660046143e6565b610abc565b6102b961032a3660046144bd565b610ad8565b61034261033d366004614521565b610d63565b60405161029d9190614611565b6102b961035d3660046143e6565b611269565b6102b96103703660046143e6565b611285565b61037d6112a1565b60405161029d96959493929190614691565b6103a261039d36600461438d565b611645565b60405161029d989796959493929190614703565b6102746103c43660046147b2565b611ad0565b6102b96103d73660046143e6565b612005565b610342612021565b6005546102fb565b61037d6103fa36600461438d565b61269c565b6102b961040d3660046143e6565b612a8e565b61042561042036600461438d565b612aaa565b60405161029d9190614870565b610274610440366004614305565b612fb3565b61037d610453366004614883565b61315b565b6102b96104663660046143e6565b6133d0565b61027461047936600461489c565b6133ec565b6102fb61048c366004614521565b6136c1565b61027461049f3660046144bd565b61371e565b6102fb60075481565b6103a26104bb36600461438d565b613846565b6102b96104ce3660046143e6565b61386c565b6102b96104e13660046143e6565b613888565b6104f96104f43660046144bd565b6138a4565b604051901515815260200161029d565b6102b96105173660046143e6565b613958565b610524613974565b60405161029d91906149c8565b61027461053f366004614b62565b613c43565b61042561055236600461438d565b6141c1565b6102b96105653660046143e6565b614219565b6102fb60065481565b80600b846040516105849190614c7e565b908152602001604051809103902060070190816105a19190614d3c565b5080600a836040516105b39190614c7e565b908152602001604051809103902060070190816105d09190614d3c565b50336000908152600960205260408120905b815481101561068557848051906020012082828154811061060557610605614dfc565b90600052602060002090600802016004016040516106239190614e2b565b6040518091039020036106735733600090815260096020526040902080548491908390811061065457610654614dfc565b906000526020600020906008020160070190816106719190614d3c565b505b8061067d81614eee565b9150506105e2565b5050505050565b6000805b6005548110156107b457828051906020012060086000600584815481106106b9576106b9614dfc565b60009182526020808320600692909202909101546001600160a01b03168352820192909252604090810190912090516106f29190614e2b565b6040518091039020148061076957508280519060200120600860006005848154811061072057610720614dfc565b600091825260208083206006909202909101546001600160a01b03168352820192909252604001902060016003020160000160405161075f9190614e2b565b6040518091039020145b156107a2576005818154811061078157610781614dfc565b60009182526020909120600690910201546001600160a01b03169392505050565b806107ac81614eee565b915050610690565b50600092915050565b601360205281600052604060002081815481106107d957600080fd5b906000526020600020016000915091505080546107f590614c9a565b80601f016020809104026020016040519081016040528092919081815260200182805461082190614c9a565b801561086e5780601f106108435761010080835404028352916020019161086e565b820191906000526020600020905b81548152906001019060200180831161085157829003601f168201915b505050505081565b6008602052816000526040600020816002811061089257600080fd5b6003020180549092508291506108a790614c9a565b80601f01602080910402602001604051908101604052809291908181526020018280546108d390614c9a565b80156109205780601f106108f557610100808354040283529160200191610920565b820191906000526020600020905b81548152906001019060200180831161090357829003601f168201915b50505050509080600101805461093590614c9a565b80601f016020809104026020016040519081016040528092919081815260200182805461096190614c9a565b80156109ae5780601f10610983576101008083540402835291602001916109ae565b820191906000526020600020905b81548152906001019060200180831161099157829003601f168201915b5050505050908060020180546109c390614c9a565b80601f01602080910402602001604051908101604052809291908181526020018280546109ef90614c9a565b8015610a3c5780601f10610a1157610100808354040283529160200191610a3c565b820191906000526020600020905b815481529060010190602001808311610a1f57829003601f168201915b5050505050905083565b6000805b600654811015610ab25760058181548110610a6757610a67614dfc565b9060005260206000209060060201600101604051610a859190614e2b565b6040518091039020838051906020012003610aa05792915050565b80610aaa81614eee565b915050610a4a565b5060001992915050565b601060205281600052604060002081815481106107d957600080fd5b6060600082604051602001610aed9190614c7e565b60405160208183030381529060405290506000610b098561068c565b90506001600160a01b03811633148015610b61575081516020808401919091206001600160a01b0383166000908152600890925260408220909160030201600101604051610b579190614e2b565b6040518091039020145b8015610ba4575084516020808701919091206001600160a01b0383166000908152600890925260409182902091519091610b9a91614e2b565b6040518091039020145b15610c5c576001600160a01b0381166000908152600860205260408120905b600302016002018054610bd590614c9a565b80601f0160208091040260200160405190810160405280929190818152602001828054610c0190614c9a565b8015610c4e5780601f10610c2357610100808354040283529160200191610c4e565b820191906000526020600020905b815481529060010190602001808311610c3157829003601f168201915b505050505092505050610d5d565b6001600160a01b03811633148015610cb3575081516020808401919091206001600160a01b038316600090815260089092526040909120600160030201600101604051610ca99190614e2b565b6040518091039020145b8015610cfe575084516020808701919091206001600160a01b038316600090815260089092526040909120600160030201600001604051610cf49190614e2b565b6040518091039020145b15610d22576001600160a01b03811660009081526008602052604090206001610bc3565b6040518060400160405280600581526020017f66616c7365000000000000000000000000000000000000000000000000000000815250925050505b92915050565b6001600160a01b0381166000908152600960209081526040808320805482518185028101850190935280835260609492939192909184015b8282101561125e578382906000526020600020906008020160405180610100016040529081600082018054610dcf90614c9a565b80601f0160208091040260200160405190810160405280929190818152602001828054610dfb90614c9a565b8015610e485780601f10610e1d57610100808354040283529160200191610e48565b820191906000526020600020905b815481529060010190602001808311610e2b57829003601f168201915b50505050508152602001600182018054610e6190614c9a565b80601f0160208091040260200160405190810160405280929190818152602001828054610e8d90614c9a565b8015610eda5780601f10610eaf57610100808354040283529160200191610eda565b820191906000526020600020905b815481529060010190602001808311610ebd57829003601f168201915b50505050508152602001600282018054610ef390614c9a565b80601f0160208091040260200160405190810160405280929190818152602001828054610f1f90614c9a565b8015610f6c5780601f10610f4157610100808354040283529160200191610f6c565b820191906000526020600020905b815481529060010190602001808311610f4f57829003601f168201915b50505050508152602001600382018054610f8590614c9a565b80601f0160208091040260200160405190810160405280929190818152602001828054610fb190614c9a565b8015610ffe5780601f10610fd357610100808354040283529160200191610ffe565b820191906000526020600020905b815481529060010190602001808311610fe157829003601f168201915b5050505050815260200160048201805461101790614c9a565b80601f016020809104026020016040519081016040528092919081815260200182805461104390614c9a565b80156110905780601f1061106557610100808354040283529160200191611090565b820191906000526020600020905b81548152906001019060200180831161107357829003601f168201915b505050505081526020016005820180546110a990614c9a565b80601f01602080910402602001604051908101604052809291908181526020018280546110d590614c9a565b80156111225780601f106110f757610100808354040283529160200191611122565b820191906000526020600020905b81548152906001019060200180831161110557829003601f168201915b5050505050815260200160068201805461113b90614c9a565b80601f016020809104026020016040519081016040528092919081815260200182805461116790614c9a565b80156111b45780601f10611189576101008083540402835291602001916111b4565b820191906000526020600020905b81548152906001019060200180831161119757829003601f168201915b505050505081526020016007820180546111cd90614c9a565b80601f01602080910402602001604051908101604052809291908181526020018280546111f990614c9a565b80156112465780601f1061121b57610100808354040283529160200191611246565b820191906000526020600020905b81548152906001019060200180831161122957829003601f168201915b50505050508152505081526020019060010190610d9b565b505050509050919050565b600c60205281600052604060002081815481106107d957600080fd5b600f60205281600052604060002081815481106107d957600080fd5b600060608080808433815b6005548110156115d557816001600160a01b0316600582815481106112d3576112d3614dfc565b60009182526020909120600690910201546001600160a01b0316036115c35760006005828154811061130757611307614dfc565b60009182526020918290206040805160c0810190915260069092020180546001600160a01b03168252600181018054929391929184019161134790614c9a565b80601f016020809104026020016040519081016040528092919081815260200182805461137390614c9a565b80156113c05780601f10611395576101008083540402835291602001916113c0565b820191906000526020600020905b8154815290600101906020018083116113a357829003601f168201915b505050505081526020016002820180546113d990614c9a565b80601f016020809104026020016040519081016040528092919081815260200182805461140590614c9a565b80156114525780601f1061142757610100808354040283529160200191611452565b820191906000526020600020905b81548152906001019060200180831161143557829003601f168201915b5050505050815260200160038201805461146b90614c9a565b80601f016020809104026020016040519081016040528092919081815260200182805461149790614c9a565b80156114e45780601f106114b9576101008083540402835291602001916114e4565b820191906000526020600020905b8154815290600101906020018083116114c757829003601f168201915b505050505081526020016004820180546114fd90614c9a565b80601f016020809104026020016040519081016040528092919081815260200182805461152990614c9a565b80156115765780601f1061154b57610100808354040283529160200191611576565b820191906000526020600020905b81548152906001019060200180831161155957829003601f168201915b50505091835250506005919091015460ff16151560209182015281519082015160408301516060840151608085015160a090950151939d50919b5099509750909550935061163d92505050565b806115cd81614eee565b9150506112ac565b506040517f08c379a000000000000000000000000000000000000000000000000000000000815260206004820152601860248201527f496e7374697475746520646f65736e277420657869737421000000000000000060448201526064015b60405180910390fd5b909192939495565b8051602081830181018051600b8252928201919093012091528054819061166b90614c9a565b80601f016020809104026020016040519081016040528092919081815260200182805461169790614c9a565b80156116e45780601f106116b9576101008083540402835291602001916116e4565b820191906000526020600020905b8154815290600101906020018083116116c757829003601f168201915b5050505050908060010180546116f990614c9a565b80601f016020809104026020016040519081016040528092919081815260200182805461172590614c9a565b80156117725780601f1061174757610100808354040283529160200191611772565b820191906000526020600020905b81548152906001019060200180831161175557829003601f168201915b50505050509080600201805461178790614c9a565b80601f01602080910402602001604051908101604052809291908181526020018280546117b390614c9a565b80156118005780601f106117d557610100808354040283529160200191611800565b820191906000526020600020905b8154815290600101906020018083116117e357829003601f168201915b50505050509080600301805461181590614c9a565b80601f016020809104026020016040519081016040528092919081815260200182805461184190614c9a565b801561188e5780601f106118635761010080835404028352916020019161188e565b820191906000526020600020905b81548152906001019060200180831161187157829003601f168201915b5050505050908060040180546118a390614c9a565b80601f01602080910402602001604051908101604052809291908181526020018280546118cf90614c9a565b801561191c5780601f106118f15761010080835404028352916020019161191c565b820191906000526020600020905b8154815290600101906020018083116118ff57829003601f168201915b50505050509080600501805461193190614c9a565b80601f016020809104026020016040519081016040528092919081815260200182805461195d90614c9a565b80156119aa5780601f1061197f576101008083540402835291602001916119aa565b820191906000526020600020905b81548152906001019060200180831161198d57829003601f168201915b5050505050908060060180546119bf90614c9a565b80601f01602080910402602001604051908101604052809291908181526020018280546119eb90614c9a565b8015611a385780601f10611a0d57610100808354040283529160200191611a38565b820191906000526020600020905b815481529060010190602001808311611a1b57829003601f168201915b505050505090806007018054611a4d90614c9a565b80601f0160208091040260200160405190810160405280929190818152602001828054611a7990614c9a565b8015611ac65780601f10611a9b57610100808354040283529160200191611ac6565b820191906000526020600020905b815481529060010190602001808311611aa957829003601f168201915b5050505050905088565b60008060005b600554811015611bf857876001600160a01b031660058281548110611afd57611afd614dfc565b60009182526020909120600690910201546001600160a01b031603611b5957604051600193506001600160a01b038916907f965b3106ea605b2c0c795263318df6f81c72f087a8ce9e50e5e0d95a80b5fd9390600090a2611bf8565b868051906020012060058281548110611b7457611b74614dfc565b9060005260206000209060060201600101604051611b929190614e2b565b604051809103902003611be6576001915086604051611bb19190614c7e565b604051908190038120907f502dbe6b6cb6ad0909bd0c9b8c9d94df3fdcd8ff3b0f28a9003fe6e8ec56647d90600090a2611bf8565b80611bf081614eee565b915050611ad6565b508115611c61576040517f08c379a000000000000000000000000000000000000000000000000000000000815260206004820181905260248201527f496e73746974757465206164647265737320616c7265616479206578697374736044820152606401611634565b8015611cc9576040517f08c379a000000000000000000000000000000000000000000000000000000000815260206004820152601c60248201527f496e737469747574652072656620616c726561647920657869737473000000006044820152606401611634565b6040805160c0810182526001600160a01b038981168252602082018981529282018890526060820187905260808201869052600160a0830181905260058054918201815560005282517f036b6384b5eca791c62761152d0c79bb0604c104a5fb6f4eb0703f3154bb3db0600690920291820180547fffffffffffffffffffffffff000000000000000000000000000000000000000016919093161782559251919290917f036b6384b5eca791c62761152d0c79bb0604c104a5fb6f4eb0703f3154bb3db190910190611d9b9082614d3c565b5060408201516002820190611db09082614d3c565b5060608201516003820190611dc59082614d3c565b5060808201516004820190611dda9082614d3c565b5060a09190910151600590910180547fffffffffffffffffffffffffffffffffffffffffffffffffffffffffffffff001691151591909117905560068054906000611e2483614eee565b9091555050604080517f696e7374697475746500000000000000000000000000000000000000000000006020808301919091528251600981840301815260898301845260298301888152604984018290528451808601865260088082527f6f66666963696572000000000000000000000000000000000000000000000000828601526069909501526001600160a01b038c166000908152939092529290912081518190611ed19082614d3c565b5060208201516001820190611ee69082614d3c565b5060408201516002820190611efb9082614d3c565b505060408051606081018252868152602080820185905282518084018452600981527f76616c696461746f72000000000000000000000000000000000000000000000081830152828401526001600160a01b038c1660009081526008909152919091208151919250600301908190611f739082614d3c565b5060208201516001820190611f889082614d3c565b5060408201516002820190611f9d9082614d3c565b5050604080518082018252600981527f696e7374697475746500000000000000000000000000000000000000000000006020808301919091526001600160a01b038c1660009081526004909152919091209150611ffa9082614d3c565b505050505050505050565b601560205281600052604060002081815481106107d957600080fd5b60606000805b60055481101561209057600960006005838154811061204857612048614dfc565b600091825260208083206006909202909101546001600160a01b0316835282019290925260400190205461207c9083614f08565b91508061208881614eee565b915050612027565b5060008167ffffffffffffffff8111156120ac576120ac614235565b60405190808252806020026020018201604052801561212557816020015b61211260405180610100016040528060608152602001606081526020016060815260200160608152602001606081526020016060815260200160608152602001606081525090565b8152602001906001900390816120ca5790505b5090506000805b600554811015612693576000600960006005848154811061214f5761214f614dfc565b600091825260208083206006909202909101546001600160a01b03168352820192909252604001812091505b815481101561267e5781818154811061219657612196614dfc565b9060005260206000209060080201604051806101000160405290816000820180546121c090614c9a565b80601f01602080910402602001604051908101604052809291908181526020018280546121ec90614c9a565b80156122395780601f1061220e57610100808354040283529160200191612239565b820191906000526020600020905b81548152906001019060200180831161221c57829003601f168201915b5050505050815260200160018201805461225290614c9a565b80601f016020809104026020016040519081016040528092919081815260200182805461227e90614c9a565b80156122cb5780601f106122a0576101008083540402835291602001916122cb565b820191906000526020600020905b8154815290600101906020018083116122ae57829003601f168201915b505050505081526020016002820180546122e490614c9a565b80601f016020809104026020016040519081016040528092919081815260200182805461231090614c9a565b801561235d5780601f106123325761010080835404028352916020019161235d565b820191906000526020600020905b81548152906001019060200180831161234057829003601f168201915b5050505050815260200160038201805461237690614c9a565b80601f01602080910402602001604051908101604052809291908181526020018280546123a290614c9a565b80156123ef5780601f106123c4576101008083540402835291602001916123ef565b820191906000526020600020905b8154815290600101906020018083116123d257829003601f168201915b5050505050815260200160048201805461240890614c9a565b80601f016020809104026020016040519081016040528092919081815260200182805461243490614c9a565b80156124815780601f1061245657610100808354040283529160200191612481565b820191906000526020600020905b81548152906001019060200180831161246457829003601f168201915b5050505050815260200160058201805461249a90614c9a565b80601f01602080910402602001604051908101604052809291908181526020018280546124c690614c9a565b80156125135780601f106124e857610100808354040283529160200191612513565b820191906000526020600020905b8154815290600101906020018083116124f657829003601f168201915b5050505050815260200160068201805461252c90614c9a565b80601f016020809104026020016040519081016040528092919081815260200182805461255890614c9a565b80156125a55780601f1061257a576101008083540402835291602001916125a5565b820191906000526020600020905b81548152906001019060200180831161258857829003601f168201915b505050505081526020016007820180546125be90614c9a565b80601f01602080910402602001604051908101604052809291908181526020018280546125ea90614c9a565b80156126375780601f1061260c57610100808354040283529160200191612637565b820191906000526020600020905b81548152906001019060200180831161261a57829003601f168201915b50505050508152505085858151811061265257612652614dfc565b6020026020010181905250838061266890614eee565b945050808061267690614eee565b91505061217b565b5050808061268b90614eee565b91505061212c565b50909392505050565b6000606080808084805b600554811015612a22578780519060200120600582815481106126cb576126cb614dfc565b90600052602060002090600602016003016040516126e99190614e2b565b6040518091039020148061273b575087805190602001206005828154811061271357612713614dfc565b90600052602060002090600602016004016040516127319190614e2b565b6040518091039020145b15612a105760006005828154811061275557612755614dfc565b60009182526020918290206040805160c0810190915260069092020180546001600160a01b03168252600181018054929391929184019161279590614c9a565b80601f01602080910402602001604051908101604052809291908181526020018280546127c190614c9a565b801561280e5780601f106127e35761010080835404028352916020019161280e565b820191906000526020600020905b8154815290600101906020018083116127f157829003601f168201915b5050505050815260200160028201805461282790614c9a565b80601f016020809104026020016040519081016040528092919081815260200182805461285390614c9a565b80156128a05780601f10612875576101008083540402835291602001916128a0565b820191906000526020600020905b81548152906001019060200180831161288357829003601f168201915b505050505081526020016003820180546128b990614c9a565b80601f01602080910402602001604051908101604052809291908181526020018280546128e590614c9a565b80156129325780601f1061290757610100808354040283529160200191612932565b820191906000526020600020905b81548152906001019060200180831161291557829003601f168201915b5050505050815260200160048201805461294b90614c9a565b80601f016020809104026020016040519081016040528092919081815260200182805461297790614c9a565b80156129c45780601f10612999576101008083540402835291602001916129c4565b820191906000526020600020905b8154815290600101906020018083116129a757829003601f168201915b50505091835250506005919091015460ff16151560209182015281519082015160408301516060840151608085015160a090950151939c50919a50985096509094509250612a85915050565b80612a1a81614eee565b9150506126a6565b506040517f08c379a000000000000000000000000000000000000000000000000000000000815260206004820152601360248201527f496e73746974757465206e6f7420666f756e64000000000000000000000000006044820152606401611634565b91939550919395565b601460205281600052604060002081815481106107d957600080fd5b612af260405180610100016040528060608152602001606081526020016060815260200160608152602001606081526020016060815260200160608152602001606081525090565b600a82604051612b029190614c7e565b908152602001604051809103902060405180610100016040529081600082018054612b2c90614c9a565b80601f0160208091040260200160405190810160405280929190818152602001828054612b5890614c9a565b8015612ba55780601f10612b7a57610100808354040283529160200191612ba5565b820191906000526020600020905b815481529060010190602001808311612b8857829003601f168201915b50505050508152602001600182018054612bbe90614c9a565b80601f0160208091040260200160405190810160405280929190818152602001828054612bea90614c9a565b8015612c375780601f10612c0c57610100808354040283529160200191612c37565b820191906000526020600020905b815481529060010190602001808311612c1a57829003601f168201915b50505050508152602001600282018054612c5090614c9a565b80601f0160208091040260200160405190810160405280929190818152602001828054612c7c90614c9a565b8015612cc95780601f10612c9e57610100808354040283529160200191612cc9565b820191906000526020600020905b815481529060010190602001808311612cac57829003601f168201915b50505050508152602001600382018054612ce290614c9a565b80601f0160208091040260200160405190810160405280929190818152602001828054612d0e90614c9a565b8015612d5b5780601f10612d3057610100808354040283529160200191612d5b565b820191906000526020600020905b815481529060010190602001808311612d3e57829003601f168201915b50505050508152602001600482018054612d7490614c9a565b80601f0160208091040260200160405190810160405280929190818152602001828054612da090614c9a565b8015612ded5780601f10612dc257610100808354040283529160200191612ded565b820191906000526020600020905b815481529060010190602001808311612dd057829003601f168201915b50505050508152602001600582018054612e0690614c9a565b80601f0160208091040260200160405190810160405280929190818152602001828054612e3290614c9a565b8015612e7f5780601f10612e5457610100808354040283529160200191612e7f565b820191906000526020600020905b815481529060010190602001808311612e6257829003601f168201915b50505050508152602001600682018054612e9890614c9a565b80601f0160208091040260200160405190810160405280929190818152602001828054612ec490614c9a565b8015612f115780601f10612ee657610100808354040283529160200191612f11565b820191906000526020600020905b815481529060010190602001808311612ef457829003601f168201915b50505050508152602001600782018054612f2a90614c9a565b80601f0160208091040260200160405190810160405280929190818152602001828054612f5690614c9a565b8015612fa35780601f10612f7857610100808354040283529160200191612fa3565b820191906000526020600020905b815481529060010190602001808311612f8657829003601f168201915b5050505050815250509050919050565b60408051808201909152600581527f66616c73650000000000000000000000000000000000000000000000000000006020909101527fba9154e0baa69c78e0ca563b867df81bae9d177c4ea1452c35c84386a70f0f7a6130138484610ad8565b8051906020012003613081576040517f08c379a000000000000000000000000000000000000000000000000000000000815260206004820152601360248201527f6e652070657574207061732061636365646572000000000000000000000000006044820152606401611634565b6000816040516020016130949190614c7e565b60408051808303601f190181528282528651602080890191909120336000908152600890925292902090935090916130cc9190614e2b565b6040518091039020036130fb573360009081526008602052604090206001016130f58282614d3c565b50613155565b83516020808601919091203360009081526008909252604090912060016003020160000160405161312c9190614e2b565b604051809103902003613155573360009081526008602052604090206004016106858282614d3c565b50505050565b6005818154811061316b57600080fd5b6000918252602090912060069091020180546001820180546001600160a01b0390921693509061319a90614c9a565b80601f01602080910402602001604051908101604052809291908181526020018280546131c690614c9a565b80156132135780601f106131e857610100808354040283529160200191613213565b820191906000526020600020905b8154815290600101906020018083116131f657829003601f168201915b50505050509080600201805461322890614c9a565b80601f016020809104026020016040519081016040528092919081815260200182805461325490614c9a565b80156132a15780601f10613276576101008083540402835291602001916132a1565b820191906000526020600020905b81548152906001019060200180831161328457829003601f168201915b5050505050908060030180546132b690614c9a565b80601f01602080910402602001604051908101604052809291908181526020018280546132e290614c9a565b801561332f5780601f106133045761010080835404028352916020019161332f565b820191906000526020600020905b81548152906001019060200180831161331257829003601f168201915b50505050509080600401805461334490614c9a565b80601f016020809104026020016040519081016040528092919081815260200182805461337090614c9a565b80156133bd5780601f10613392576101008083540402835291602001916133bd565b820191906000526020600020905b8154815290600101906020018083116133a057829003601f168201915b5050506005909301549192505060ff1686565b601660205281600052604060002081815481106107d957600080fd5b604080516101008101825287815260208082018a9052818301889052606082018790526080820186905260a0820185905260c0820184905282518084018452600781527f50656e64696e67000000000000000000000000000000000000000000000000008183015260e08301526001600160a01b038b166000908152600982529283208054600181018255908452922081519192839260089091029091019081906134979082614d3c565b50602082015160018201906134ac9082614d3c565b50604082015160028201906134c19082614d3c565b50606082015160038201906134d69082614d3c565b50608082015160048201906134eb9082614d3c565b5060a082015160058201906135009082614d3c565b5060c082015160068201906135159082614d3c565b5060e0820151600782019061352a9082614d3c565b50505080600a8360405161353e9190614c7e565b9081526040519081900360200190208151819061355b9082614d3c565b50602082015160018201906135709082614d3c565b50604082015160028201906135859082614d3c565b506060820151600382019061359a9082614d3c565b50608082015160048201906135af9082614d3c565b5060a082015160058201906135c49082614d3c565b5060c082015160068201906135d99082614d3c565b5060e082015160078201906135ee9082614d3c565b5090505080600b856040516136039190614c7e565b908152604051908190036020019020815181906136209082614d3c565b50602082015160018201906136359082614d3c565b506040820151600282019061364a9082614d3c565b506060820151600382019061365f9082614d3c565b50608082015160048201906136749082614d3c565b5060a082015160058201906136899082614d3c565b5060c0820151600682019061369e9082614d3c565b5060e082015160078201906136b39082614d3c565b505050505050505050505050565b6000805b600654811015610ab257600581815481106136e2576136e2614dfc565b60009182526020909120600690910201546001600160a01b039081169084160361370c5792915050565b8061371681614eee565b9150506136c5565b6000816040516020016137319190614c7e565b60408051808303601f190181528282528551602080880191909120336000908152600890925292902090935090916137699190614e2b565b604051809103902003613798573360009081526008602052604090206001016137928282614d3c565b506137f4565b8251602080850191909120336000908152600890925260409091206001600302016000016040516137c99190614e2b565b6040518091039020036137f4573360009081526008602052604090206004016137f28282614d3c565b505b826040516138029190614c7e565b60405180910390207f8bdb409891725ce39196ef62e4575eaa0766913147d8e78b2c818015ecd76529836040516138399190614460565b60405180910390a2505050565b8051602081830181018051600a8252928201919093012091528054819061166b90614c9a565b601260205281600052604060002081815481106107d957600080fd5b600e60205281600052604060002081815481106107d957600080fd5b3360009081526001602052604081205460ff166138c357506000610d5d565b3360009081526002602052604080822090519091906138e3908390614e2b565b604051809103902084805190602001201490508061390657600092505050610d5d565b336000908152600360205260408082209051909190613926908390614e2b565b604051809103902087805190602001201490508061394b576000945050505050610d5d565b5060019695505050505050565b600d60205281600052604060002081815481106107d957600080fd5b60606005805480602002602001604051908101604052809291908181526020016000905b82821015613c3a5760008481526020908190206040805160c081019091526006850290910180546001600160a01b0316825260018101805492939192918401916139e190614c9a565b80601f0160208091040260200160405190810160405280929190818152602001828054613a0d90614c9a565b8015613a5a5780601f10613a2f57610100808354040283529160200191613a5a565b820191906000526020600020905b815481529060010190602001808311613a3d57829003601f168201915b50505050508152602001600282018054613a7390614c9a565b80601f0160208091040260200160405190810160405280929190818152602001828054613a9f90614c9a565b8015613aec5780601f10613ac157610100808354040283529160200191613aec565b820191906000526020600020905b815481529060010190602001808311613acf57829003601f168201915b50505050508152602001600382018054613b0590614c9a565b80601f0160208091040260200160405190810160405280929190818152602001828054613b3190614c9a565b8015613b7e5780601f10613b5357610100808354040283529160200191613b7e565b820191906000526020600020905b815481529060010190602001808311613b6157829003601f168201915b50505050508152602001600482018054613b9790614c9a565b80601f0160208091040260200160405190810160405280929190818152602001828054613bc390614c9a565b8015613c105780601f10613be557610100808354040283529160200191613c10565b820191906000526020600020905b815481529060010190602001808311613bf357829003601f168201915b50505091835250506005919091015460ff1615156020918201529082526001929092019101613998565b50505050905090565b60005b8551811015611ffa57600960008a6001600160a01b03166001600160a01b031681526020019081526020016000206040518061010001604052808a8152602001898152602001888481518110613c9e57613c9e614dfc565b60200260200101518152602001878481518110613cbd57613cbd614dfc565b60200260200101518152602001868481518110613cdc57613cdc614dfc565b60200260200101518152602001858481518110613cfb57613cfb614dfc565b60200260200101518152602001848481518110613d1a57613d1a614dfc565b602090810291909101810151825260408051808201909152600781527f50656e64696e670000000000000000000000000000000000000000000000000081830152918101919091528254600181018455600093845292208151919260080201908190613d869082614d3c565b5060208201516001820190613d9b9082614d3c565b5060408201516002820190613db09082614d3c565b5060608201516003820190613dc59082614d3c565b5060808201516004820190613dda9082614d3c565b5060a08201516005820190613def9082614d3c565b5060c08201516006820190613e049082614d3c565b5060e08201516007820190613e199082614d3c565b505050604051806101000160405280898152602001888152602001878381518110613e4657613e46614dfc565b60200260200101518152602001868381518110613e6557613e65614dfc565b60200260200101518152602001858381518110613e8457613e84614dfc565b60200260200101518152602001848381518110613ea357613ea3614dfc565b60200260200101518152602001838381518110613ec257613ec2614dfc565b602002602001015181526020016040518060400160405280600781526020017f50656e64696e6700000000000000000000000000000000000000000000000000815250815250600a838381518110613f1c57613f1c614dfc565b6020026020010151604051613f319190614c7e565b90815260405190819003602001902081518190613f4e9082614d3c565b5060208201516001820190613f639082614d3c565b5060408201516002820190613f789082614d3c565b5060608201516003820190613f8d9082614d3c565b5060808201516004820190613fa29082614d3c565b5060a08201516005820190613fb79082614d3c565b5060c08201516006820190613fcc9082614d3c565b5060e08201516007820190613fe19082614d3c565b5090505060405180610100016040528089815260200188815260200187838151811061400f5761400f614dfc565b6020026020010151815260200186838151811061402e5761402e614dfc565b6020026020010151815260200185838151811061404d5761404d614dfc565b6020026020010151815260200184838151811061406c5761406c614dfc565b6020026020010151815260200183838151811061408b5761408b614dfc565b602002602001015181526020016040518060400160405280600781526020017f50656e64696e6700000000000000000000000000000000000000000000000000815250815250600b8583815181106140e5576140e5614dfc565b60200260200101516040516140fa9190614c7e565b908152604051908190036020019020815181906141179082614d3c565b506020820151600182019061412c9082614d3c565b50604082015160028201906141419082614d3c565b50606082015160038201906141569082614d3c565b506080820151600482019061416b9082614d3c565b5060a082015160058201906141809082614d3c565b5060c082015160068201906141959082614d3c565b5060e082015160078201906141aa9082614d3c565b5090505080806141b990614eee565b915050613c46565b61420960405180610100016040528060608152602001606081526020016060815260200160608152602001606081526020016060815260200160608152602001606081525090565b600b82604051612b029190614c7e565b601160205281600052604060002081815481106107d957600080fd5b7f4e487b7100000000000000000000000000000000000000000000000000000000600052604160045260246000fd5b604051601f8201601f1916810167ffffffffffffffff8111828210171561428d5761428d614235565b604052919050565b600082601f8301126142a657600080fd5b813567ffffffffffffffff8111156142c0576142c0614235565b6142d36020601f19601f84011601614264565b8181528460208386010111156142e857600080fd5b816020850160208301376000918101602001919091529392505050565b60008060006060848603121561431a57600080fd5b833567ffffffffffffffff8082111561433257600080fd5b61433e87838801614295565b9450602086013591508082111561435457600080fd5b61436087838801614295565b9350604086013591508082111561437657600080fd5b5061438386828701614295565b9150509250925092565b60006020828403121561439f57600080fd5b813567ffffffffffffffff8111156143b657600080fd5b6143c284828501614295565b949350505050565b80356001600160a01b03811681146143e157600080fd5b919050565b600080604083850312156143f957600080fd5b614402836143ca565b946020939093013593505050565b60005b8381101561442b578181015183820152602001614413565b50506000910152565b6000815180845261444c816020860160208601614410565b601f01601f19169290920160200192915050565b6020815260006144736020830184614434565b9392505050565b60608152600061448d6060830186614434565b828103602084015261449f8186614434565b905082810360408401526144b38185614434565b9695505050505050565b600080604083850312156144d057600080fd5b823567ffffffffffffffff808211156144e857600080fd5b6144f486838701614295565b9350602085013591508082111561450a57600080fd5b5061451785828601614295565b9150509250929050565b60006020828403121561453357600080fd5b614473826143ca565b6000610100825181855261455282860182614434565b9150506020830151848203602086015261456c8282614434565b915050604083015184820360408601526145868282614434565b915050606083015184820360608601526145a08282614434565b915050608083015184820360808601526145ba8282614434565b91505060a083015184820360a08601526145d48282614434565b91505060c083015184820360c08601526145ee8282614434565b91505060e083015184820360e08601526146088282614434565b95945050505050565b6000602080830181845280855180835260408601915060408160051b870101925083870160005b82811015614684577fffffffffffffffffffffffffffffffffffffffffffffffffffffffffffffffc088860301845261467285835161453c565b94509285019290850190600101614638565b5092979650505050505050565b6001600160a01b038716815260c0602082015260006146b360c0830188614434565b82810360408401526146c58188614434565b905082810360608401526146d98187614434565b905082810360808401526146ed8186614434565b91505082151560a0830152979650505050505050565b60006101008083526147178184018c614434565b9050828103602084015261472b818b614434565b9050828103604084015261473f818a614434565b905082810360608401526147538189614434565b905082810360808401526147678188614434565b905082810360a084015261477b8187614434565b905082810360c084015261478f8186614434565b905082810360e08401526147a38185614434565b9b9a5050505050505050505050565b600080600080600060a086880312156147ca57600080fd5b6147d3866143ca565b9450602086013567ffffffffffffffff808211156147f057600080fd5b6147fc89838a01614295565b9550604088013591508082111561481257600080fd5b61481e89838a01614295565b9450606088013591508082111561483457600080fd5b61484089838a01614295565b9350608088013591508082111561485657600080fd5b5061486388828901614295565b9150509295509295909350565b602081526000614473602083018461453c565b60006020828403121561489557600080fd5b5035919050565b600080600080600080600080610100898b0312156148b957600080fd5b6148c2896143ca565b9750602089013567ffffffffffffffff808211156148df57600080fd5b6148eb8c838d01614295565b985060408b013591508082111561490157600080fd5b61490d8c838d01614295565b975060608b013591508082111561492357600080fd5b61492f8c838d01614295565b965060808b013591508082111561494557600080fd5b6149518c838d01614295565b955060a08b013591508082111561496757600080fd5b6149738c838d01614295565b945060c08b013591508082111561498957600080fd5b6149958c838d01614295565b935060e08b01359150808211156149ab57600080fd5b506149b88b828c01614295565b9150509295985092959890939650565b60006020808301818452808551808352604092508286019150828160051b87010184880160005b83811015614ab5577fffffffffffffffffffffffffffffffffffffffffffffffffffffffffffffffc0898403018552815160c06001600160a01b03825116855288820151818a870152614a4482870182614434565b9150508782015185820389870152614a5c8282614434565b91505060608083015186830382880152614a768382614434565b9250505060808083015186830382880152614a918382614434565b60a094850151151597909401969096525050948701949250908601906001016149ef565b509098975050505050505050565b600082601f830112614ad457600080fd5b8135602067ffffffffffffffff80831115614af157614af1614235565b8260051b614b00838201614264565b9384528581018301938381019088861115614b1a57600080fd5b84880192505b85831015614b5657823584811115614b385760008081fd5b614b468a87838c0101614295565b8352509184019190840190614b20565b98975050505050505050565b600080600080600080600080610100898b031215614b7f57600080fd5b614b88896143ca565b9750602089013567ffffffffffffffff80821115614ba557600080fd5b614bb18c838d01614295565b985060408b0135915080821115614bc757600080fd5b614bd38c838d01614295565b975060608b0135915080821115614be957600080fd5b614bf58c838d01614ac3565b965060808b0135915080821115614c0b57600080fd5b614c178c838d01614ac3565b955060a08b0135915080821115614c2d57600080fd5b614c398c838d01614ac3565b945060c08b0135915080821115614c4f57600080fd5b614c5b8c838d01614ac3565b935060e08b0135915080821115614c7157600080fd5b506149b88b828c01614ac3565b60008251614c90818460208701614410565b9190910192915050565b600181811c90821680614cae57607f821691505b602082108103614ce7577f4e487b7100000000000000000000000000000000000000000000000000000000600052602260045260246000fd5b50919050565b601f821115614d3757600081815260208120601f850160051c81016020861015614d145750805b601f850160051c820191505b81811015614d3357828155600101614d20565b5050505b505050565b815167ffffffffffffffff811115614d5657614d56614235565b614d6a81614d648454614c9a565b84614ced565b602080601f831160018114614d9f5760008415614d875750858301515b600019600386901b1c1916600185901b178555614d33565b600085815260208120601f198616915b82811015614dce57888601518255948401946001909101908401614daf565b5085821015614dec5787850151600019600388901b60f8161c191681555b5050505050600190811b01905550565b7f4e487b7100000000000000000000000000000000000000000000000000000000600052603260045260246000fd5b6000808354614e3981614c9a565b60018281168015614e515760018114614e8457614eb3565b7fffffffffffffffffffffffffffffffffffffffffffffffffffffffffffffff0084168752821515830287019450614eb3565b8760005260208060002060005b85811015614eaa5781548a820152908401908201614e91565b50505082870194505b50929695505050505050565b7f4e487b7100000000000000000000000000000000000000000000000000000000600052601160045260246000fd5b60006000198203614f0157614f01614ebf565b5060010190565b80820180821115610d5d57610d5d614ebf56fea264697066735822122048f06ec01e97aecdab21e513468a5157b826aa5b87dff50ad596eabab3fe782b64736f6c6343000811003338633639373665356235343130343135626465393038626434646565313564666231363761396338373366633462623861383166366632616234343861393138",
  "immutableReferences": {},
  "source": "// SPDX-License-Identifier: MIT\npragma solidity ^0.8.17;\n\ncontract Institute {\n    address admin = 0xB02B95024cd1b2F12083A338f863027c307A3AC7;\n    mapping(address => bool) private isAuthorized;\n    mapping(address => string) private passwords;\n    mapping(address => string) private emails;\n    mapping(address => string) private roles;\n\n    constructor() {\n        // Donner l'autorisation  l'adresse admin\n        isAuthorized[admin] = true;\n        passwords[admin] = \"8c6976e5b5410415bde908bd4dee15dfb167a9c873fc4bb8a81f6f2ab448a918\";       \n        emails[admin] = \"admin@example.com\";\n        roles[admin] = \"admin\";\n    }\n\n    struct InstituteData {  // Renamed the struct to avoid shadowing\n        address adresseEthereum;\n        string ref;\n        string name;\n        string emailOff;\n        string emailValid;\n        bool autorisation;\n    }\n\n    struct ComptesInstitute {\n        string email;\n        string pass;\n        string role;\n    }\n\n    struct Diploma {\n        string instituteId;\n        string diplomaReference;\n        string studentId;\n        string mention;\n        string numCIN;\n        string ipfsHash;\n        string diplomaid;\n        string status;\n    }\n\n    InstituteData[] public institutes;\n    uint256 public instituteCount = 0;\n    uint256 public ConferenceCount = 0;\n    mapping(address => ComptesInstitute[2]) public compteInst;\n    mapping(address => Diploma[]) private instituteToDiplomas;\n    mapping(string => Diploma) public DiplomasById;\n    mapping(string => Diploma) public DiplomaByCin;\n    mapping(address => string[]) public diplomasNamesByAddress;\n    mapping(address => string[]) public diplomasRefsByAddress;\n    mapping(address => string[]) public namesByAddress;\n    mapping(address => string[]) public emailsByAddress;\n    mapping(address => string[]) public birthsByAddress;\n    mapping(address => string[]) public mentionsByAddress;\n    mapping(address => string[]) public diplomatedByAddress;\n    mapping(address => string[]) public cinsByAddress;\n    mapping(address => string[]) public diplomarefsByAddress;\n    mapping(address => string[]) public hashsByAddress;\n    mapping(address => string[]) public idsByAddress;\n\n    event InstituteAlreadyExists(address indexed _adresseEthereum);\n    event RefAlreadyExists(string indexed _ref);\n    event InstituteCredentialsUpdated(string indexed _email, string _newPassword);\n\n    function addInstitute(\n        address _adresseEthereum,\n        string memory _ref,\n        string memory _name,\n        string memory _emailOff,\n        string memory _emailValid\n    ) public {\n        bool adderExists = false;\n        bool refExists = false;\n        for (uint i = 0; i < institutes.length; i++) {\n            if (institutes[i].adresseEthereum == _adresseEthereum) {\n                adderExists = true;\n                emit InstituteAlreadyExists(_adresseEthereum);\n                break;\n            }\n            if (keccak256(bytes(institutes[i].ref)) == keccak256(bytes(_ref))) {\n                refExists = true;\n                emit RefAlreadyExists(_ref);\n                break;\n            }\n        }\n        require(!adderExists, \"Institute address already exists\");\n        require(!refExists, \"Institute ref already exists\");\n\n        institutes.push(InstituteData(\n            _adresseEthereum,\n            _ref,\n            _name,\n            _emailOff,\n            _emailValid,\n            true\n        ));\n        instituteCount++;\n        string memory hashedPassword = string(abi.encodePacked(\"institute\"));\n        compteInst[_adresseEthereum][0] = ComptesInstitute(_emailOff, hashedPassword, \"officier\");\n        compteInst[_adresseEthereum][1] = ComptesInstitute(_emailValid, hashedPassword, \"validator\");\n        roles[_adresseEthereum] = \"institute\";\n    }\n\n    function getInstituteByEmail(string memory _email) public view returns (\n        address,\n        string memory,\n        string memory,\n        string memory,\n        string memory,\n        bool\n    ) {\n        for (uint i = 0; i < institutes.length; i++) {\n            if (keccak256(bytes(institutes[i].emailOff)) == keccak256(bytes(_email)) ||\n                keccak256(bytes(institutes[i].emailValid)) == keccak256(bytes(_email))) {\n                InstituteData memory institute = institutes[i];\n                return (\n                    institute.adresseEthereum,\n                    institute.ref,\n                    institute.name,\n                    institute.emailOff,\n                    institute.emailValid,\n                    institute.autorisation\n                );\n            }\n        }\n        revert(\"Institute not found\");\n    }\n\n    function checkAuthorization(string memory email, string memory passwordHash) public view returns (bool) {\n        if (!isAuthorized[msg.sender]) {\n            return false;\n        }\n        string storage storedPasswordHash = passwords[msg.sender];\n        bool passwordMatches = keccak256(bytes(passwordHash)) == keccak256(bytes(storedPasswordHash));\n        if (!passwordMatches) {\n            return false;\n        }\n        string storage storedEmail = emails[msg.sender];\n        bool emailMatches = keccak256(bytes(email)) == keccak256(bytes(storedEmail));\n        if (!emailMatches) {\n            return false;\n        }\n        return true;\n    }\n\n    function getInstituteCount() public view returns (uint256) {\n        return institutes.length;\n    }\n\n    function getInstitutes() public view returns (InstituteData[] memory) {\n        return institutes;\n    }\n\n    function getMyInstitute() public view returns (\n        address, string memory,  string memory, string memory,\n        string memory, bool\n    ) {\n        address myAddress = msg.sender;\n        for (uint i = 0; i < institutes.length; i++) {\n            if (institutes[i].adresseEthereum == myAddress) {\n                InstituteData memory inst = institutes[i];\n                return (\n                    inst.adresseEthereum, inst.ref, inst.name, inst.emailOff,\n                    inst.emailValid, inst.autorisation\n                );\n            }\n        }\n        revert(\"Institute doesn't exist!\");\n    }\n\n    function findInstitute(address _adresseEthereum) public view returns (int256) {\n        for (uint i = 0; i < instituteCount; i++) {\n            if (_adresseEthereum == institutes[i].adresseEthereum)\n                return int256(i);\n        }\n        return -1;\n    }\n\n    function findInstRef(string memory _ref) public view returns (int256) {\n        for (uint i = 0; i < instituteCount; i++) {\n            if (keccak256(bytes(_ref)) == keccak256(bytes(institutes[i].ref)))\n                return int256(i);\n        }\n        return -1;\n    }\n\n    function getInstituteAddressByEmail(string memory _email) public view returns (address) {\n        for (uint i = 0; i < institutes.length; i++) {\n            if ((keccak256(bytes(compteInst[institutes[i].adresseEthereum][0].email)) == keccak256(bytes(_email))) ||\n                (keccak256(bytes(compteInst[institutes[i].adresseEthereum][1].email)) == keccak256(bytes(_email)))) {\n                return institutes[i].adresseEthereum;\n            }\n        }\n        return address(0);\n    }\n\n    function resetInstitutePassword(string memory email, string memory newPassword) public {\n        string memory hashedNewPassword = string(abi.encodePacked(newPassword));\n        if (keccak256(bytes(compteInst[msg.sender][0].email)) == keccak256(bytes(email))) {\n            compteInst[msg.sender][0].pass = hashedNewPassword;\n        } else if (keccak256(bytes(compteInst[msg.sender][1].email)) == keccak256(bytes(email))) {\n            compteInst[msg.sender][1].pass = hashedNewPassword;\n        }\n        emit InstituteCredentialsUpdated(email, newPassword);\n    }\n\n    function authorizedInstitute(string memory email, string memory password) public view returns (string memory) {\n        string memory hashedPassword = string(abi.encodePacked(password));\n        address instituteAddress = getInstituteAddressByEmail(email);\n        if (instituteAddress == msg.sender &&\n            keccak256(bytes(compteInst[instituteAddress][0].pass)) == keccak256(bytes(hashedPassword)) &&\n            keccak256(bytes(compteInst[instituteAddress][0].email)) == keccak256(bytes(email))) {\n            return compteInst[instituteAddress][0].role;\n        } else if (instituteAddress == msg.sender &&\n            keccak256(bytes(compteInst[instituteAddress][1].pass)) == keccak256(bytes(hashedPassword)) &&\n            keccak256(bytes(compteInst[instituteAddress][1].email)) == keccak256(bytes(email))) {\n            return compteInst[instituteAddress][1].role;\n        } else {\n            return \"false\";\n        }\n    }\n\n    function updateInstituteCredentials(string memory email, string memory oldPassword, string memory newPassword) public {\n        require(\n            keccak256(bytes(authorizedInstitute(email, oldPassword))) != keccak256(bytes(\"false\")),\n            \"ne peut pas acceder\"\n        );\n        string memory hashedNewPassword = string(abi.encodePacked(newPassword));\n        if (keccak256(bytes(compteInst[msg.sender][0].email)) == keccak256(bytes(email))) {\n            compteInst[msg.sender][0].pass = hashedNewPassword;\n        } else if (keccak256(bytes(compteInst[msg.sender][1].email)) == keccak256(bytes(email))) {\n            compteInst[msg.sender][1].pass = hashedNewPassword;\n        }\n    }\n\n    function addDiploma(\n        address _instituteAddress,\n        string memory _diplomaReference,\n        string memory _instituteId,\n        string memory _studentId,\n        string memory _mention,\n        string memory _numCIN,\n        string memory _ipfsHash,\n        string memory _diplomaId\n    ) public {\n        Diploma memory newDiploma = Diploma({\n            diplomaReference: _diplomaReference,\n            instituteId: _instituteId,\n            studentId: _studentId,\n            mention: _mention,\n            numCIN: _numCIN,\n            ipfsHash: _ipfsHash,\n            diplomaid: _diplomaId,\n            status: \"Pending\"\n        });\n        instituteToDiplomas[_instituteAddress].push(newDiploma);\n        DiplomasById[_diplomaId] = newDiploma;\n        DiplomaByCin[_numCIN] = newDiploma;\n    }\n\n    function addDiplomas(\n        address _instituteAddress,\n        string memory _instituteId,\n        string memory _diplomaReference,\n        string[] memory _studentIds,\n        string[] memory _mentions,\n        string[] memory _numCINs,\n        string[] memory _ipfsHashes,\n        string[] memory _diplomaIds\n    ) public {\n        for (uint i = 0; i < _studentIds.length; i++) {\n            instituteToDiplomas[_instituteAddress].push(\n                Diploma(\n                    _instituteId,\n                    _diplomaReference,\n                    _studentIds[i],\n                    _mentions[i],\n                    _numCINs[i],\n                    _ipfsHashes[i],\n                    _diplomaIds[i],\n                    \"Pending\"\n                )\n            );\n            DiplomasById[_diplomaIds[i]] = Diploma(\n                _instituteId,\n                _diplomaReference,\n                _studentIds[i],\n                _mentions[i],\n                _numCINs[i],\n                _ipfsHashes[i],\n                _diplomaIds[i],\n                \"Pending\"\n            );\n            DiplomaByCin[_numCINs[i]] = Diploma(\n                _instituteId,\n                _diplomaReference,\n                _studentIds[i],\n                _mentions[i],\n                _numCINs[i],\n                _ipfsHashes[i],\n                _diplomaIds[i],\n                \"Pending\"\n            );\n        }\n    }\n\n    function getDiplomasForInstitute(address _instituteAddress) public view returns (Diploma[] memory) {\n        return instituteToDiplomas[_instituteAddress];\n    }\n\n    function getDiplomaById(string memory _diplomaId) public view returns (Diploma memory) {\n        return DiplomasById[_diplomaId];\n    }\n\n    function getDiplomaByCin(string memory _numCIN) public view returns (Diploma memory) {\n        return DiplomaByCin[_numCIN];\n    }\n\n    function setDiplomaStatus(string memory _numCIN, string memory _ID, string memory _status) public {\n        DiplomaByCin[_numCIN].status = _status;\n        DiplomasById[_ID].status = _status;\n        Diploma[] storage diplomas = instituteToDiplomas[msg.sender];\n        for (uint256 i = 0; i < diplomas.length; i++) {\n            if (keccak256(bytes(diplomas[i].numCIN)) == keccak256(bytes(_numCIN))) {\n                instituteToDiplomas[msg.sender][i].status = _status;\n            }\n        }\n    }\n     function getAllDiplomas() public view returns (Diploma[] memory) {\n        uint totalDiplomas = 0;\n        for (uint i = 0; i < institutes.length; i++) {\n            totalDiplomas += instituteToDiplomas[institutes[i].adresseEthereum].length;\n        }\n\n        Diploma[] memory allDiplomas = new Diploma[](totalDiplomas);\n        uint index = 0;\n        for (uint i = 0; i < institutes.length; i++) {\n            Diploma[] storage diplomas = instituteToDiplomas[institutes[i].adresseEthereum];\n            for (uint j = 0; j < diplomas.length; j++) {\n                allDiplomas[index] = diplomas[j];\n                index++;\n            }\n        }\n\n        return allDiplomas;\n    }\n}\n",
  "sourcePath": "C:\\Users\\dorra\\OneDrive\\Bureau\\PFE\\truffle\\contracts\\Institute.sol",
  "compiler": {
    "name": "solc",
    "version": "0.8.17+commit.8df45f5f.Emscripten.clang"
  },
  "schemaVersion": "3.4.16",
  "updatedAt": "2024-08-28T11:17:48.654Z",
  "networkType": "ethereum",
  "devdoc": {
    "kind": "dev",
    "methods": {},
    "version": 1
  },
  "userdoc": {
    "kind": "user",
    "methods": {},
    "version": 1
  }
}